:020000040800F2
:1000000090050020390100088D1C0008FF18000829
:10001000891C0008DD0200089D2200080000000085
:10002000000000000000000000000000811E000829
:1000300059080008000000008F1C0008291F000854
:100040005301000853010008530100085301000840
:100050005301000853010008530100085301000830
:100060005B080008650800086F08000853010008D5
:100070005301000853010008530100085301000810
:100080005301000853010008530100085301000800
:1000900053010008530100085301000879080008C3
:1000A000000000005301000853010008530100083C
:1000B0000120000853010008530100085301000803
:1000C00053010008530100085301000853010008C0
:1000D00053010008530100085301000853010008B0
:1000E00053010008530100085301000853010008A0
:1000F00053010008000000005301000853010008EC
:100100000000000000000000530100085301000837
:1001100053010008530100085301000800000000CB
:1001200053010008DFF80CD000F02AF8004800471F
:100130006D230008900500200648804706480047C8
:10014000FEE7FEE7FEE7FEE7FEE7FEE7FEE7FEE787
:10015000FEE7FEE79D1F000825010008D2B201E07E
:1001600000F8012B491EFBD270470022F6E710B5BC
:1001700013460A4604461946FFF7F0FF204610BD15
:10018000064C074D06E0E06840F0010394E80700E4
:1001900098471034AC42F6D3FFF7C8FF5825000843
:1001A0007825000810B513480168134800F03CF8A2
:1001B00010480168114800F02BF80E480821026829
:1001C0000F4800F065F80B48102102680C4800F059
:1001D00035F80C4802880C4801880C48008801F06A
:1001E00091FB08480288084801880848008802F006
:1001F0003DF810BDD8000020CC000020CE0000202B
:1002000000040240D4000020D2000020D0000020D2
:100210000288012A07D10A88002A02DD0A88521EB4
:100220000A800222028070470288012A04D10A88CB
:10023000521C0A80022202807047000070B50546F9
:100240000E4614463146284600F03CFC78B90120A1
:100250000C4908800C480088C82808DD2088002840
:1002600005DD0020084908802088401E2080314696
:10027000064800F027FC012802D10020014908802F
:1002800070BD0000EE000020F000002000040240DD
:1002900070B505460E4614463146284600F012FC5D
:1002A00060B901200A4908800A480088C82805DD8D
:1002B0000020084908802088401C208031460648DC
:1002C00000F000FC012802D100200149088070BD27
:1002D000EC000020F00000200004024000BFFEE718
:1002E0002DE9F05F04460D4616461F46DDE90CABCE
:1002F000DDE90A890020383404F8380C04F8375C4A
:1003000004F8366C44F8347C24F8308C44F82C9C87
:1003100024F828AC44F804BC0E9820800F98606044
:10032000109820811198E0601298208213986061E3
:1003300014982083282060770620A0760C20E07691
:1003400014202077383C322000F03CF80022332182
:10035000204600F06BF8052000F034F8002233212D
:10036000204600F063F8052000F02CF8002232212E
:10037000204600F05BF8052000F024F894F85210B5
:100380000022204600F052F894F853100022204634
:1003900000F04CF894F854100022204600F046F883
:1003A00094F855100022204600F040F80022012168
:1003B000204600F03BF800220221204600F036F8EB
:1003C000BDE8F09F10B50446204600F06FFA10BD5E
:1003D000F8B504460D461646002713A000680090A5
:1003E0006078A84202DC6078401EC5B2A078B042B6
:1003F00002DCA078401EC6B21DF806002844C7B231
:100400002078102806D147F080010022204600F015
:100410008BF807E0207828B947F0800100222046B9
:1004200000F004F8F8BD0000004014542DE9F0413C
:1004300004460F4690463D113E46B8F1000F05D1E7
:1004400021890022606800F045FB07E0B8F1010F48
:1004500004D121890122606800F03CFB05F0010213
:100460000C34A18DA06A00F035FBA18EC5F34002CB
:10047000206B00F02FFBA18FC5F38002A06B00F072
:1004800029FBB4F84410C5F3C002206C00F022FB35
:10049000A1880022206800F01DFB0120FFF792FFD9
:1004A000A1880122206800F015FB0120FFF78AFFD8
:1004B000A1880022206800F00DFB0120FFF782FFD9
:1004C00006F00102A18DA06A00F004FBA18EC6F324
:1004D0004002206B00F0FEFAA18FC6F38002A06BF1
:1004E00000F0F8FAB4F84410C6F3C002206C00F033
:1004F000F1FAA1880022206800F0ECFA0120FFF751
:1005000061FFA1880122206800F0E4FA0120FFF7D2
:1005100059FFA18854F80C09002200F0DBFA0120F1
:10052000FFF750FFBDE8F08170B504460D46164652
:100530002EB921890022606800F0CCFA06E0012E75
:1005400004D121890122606800F0C4FA05F001029B
:10055000218B606900F0BEFA218CC5F34002E0698E
:1005600000F0B8FA218DC5F38002606A00F0B2FA9B
:10057000218EC5F3C002E06A00F0ACFA218FC5F30A
:100580000012606B00F0A6FAB4F84010C5F34012F8
:10059000E06B00F09FFAB4F84810C5F38012606C6D
:1005A00000F098FAEA09B4F85010E06C00F092FA02
:1005B000218A0022E06800F08DFA0120FFF702FF97
:1005C000218A0122E06800F085FA0120FFF7FAFE97
:1005D000218A0022E06800F07DFA0120FFF7F2FE98
:1005E00070BD70B504460D462078102805D1012253
:1005F00029462046FFF798FF06E0207820B901221F
:1006000029462046FFF712FF70BD70B505460C461F
:1006100004E014F8011B2846FFF7E3FF20780028C8
:10062000F7D170BD1CB50E4800880E490988CDE988
:1006300000100D4803880D4A0D490E4800F038F8A7
:100640000A490C48008800F07FF80A48008800F04A
:10065000BDF80848008800F00FF800F0D3F81CBD82
:1006600008000020060000200400002010000020E8
:100670000C0000200A00002010B504469CB910218F
:10068000094800F01FFA28B90848008810B901206D
:10069000064908801021044800F014FA012802D10C
:1006A00000200249088010BD00040240CE00002056
:1006B0002DE9F04704460D4616461F46DDE9088938
:1006C00004211B4800F0FEF910B9012019490880E7
:1006D00018480088012829D10421154800F0F2F9B2
:1006E000012823D1002013490880208810B9012057
:1006F000208001E0002020802088012809D1288066
:100700000D4807880D48B0F800800D48B0F80090FB
:1007100007E0094807800948A0F800800848A0F8C9
:10072000009001203080044806490860BDE8F08749
:10073000000C0240C8000020D0000020D2000020A1
:10074000D4000020D800002070B505460C462021BA
:10075000184800F0B7F910B9012017490880164869
:100760000088012825D12021124800F0ABF901288A
:100770001FD101F0D1FC00200F49088020880328F8
:1007800002D10120208002E02088401C20802088A7
:10079000012802D109480A4908602088022802D1AC
:1007A0000848074908602088032802D10648044900
:1007B000086070BD00040240CA000020D000002084
:1007C000D8000020D2000020D400002010B504463C
:1007D0009CB90821094800F075F928B90848008833
:1007E00010B90120064908800821044800F06AF980
:1007F000012802D100200249088010BD00040240F7
:10080000CC0000201CB50F480088012819D10E49E2
:1008100008230A46CDE9001004210B4801F08CFAA8
:10082000022009490346094ACDE90010012110467A
:1008300001F082FA00200649088006490860014953
:1008400008801CBD0C00002000080240000002408F
:100850000E00002000000020704710B5042000F0BA
:100860003BF810BD10B5082000F036F810BD10B5EB
:10087000102000F031F810BD10B5202000F02CF849
:1008800010BD704707480068401C064908600846CC
:1008900000680549884202D30020024908600148E7
:1008A00000687047F40000201858260570B504460B
:1008B00000F016F906462546681C10B10448006889
:1008C000054400BF00F00CF9801BA842FAD370BDAC
:1008D000E40000207047000010B50446044800689A
:1008E000204020B1024804602046FFF7F3FF10BD0E
:1008F0001404014078B50346002200240020CAE019
:10090000012696400D6805EA0604002C71D04D685A
:10091000022D02D04D68122D13D1D60803F1200507
:1009200055F826005507EE0E0F25B540A84356078B
:10093000F60E0D69B5402843D60803F1200545F8A9
:100940002600186856000325B540A8430D7905F028
:1009500003055600B540284318604D68012D08D0A6
:100960004D68022D05D04D68112D02D04D68122D15
:1009700013D1986856000325B540A8435600CD68AA
:10098000B54028439860586801259540A8430D79E3
:10099000C5F30015954028435860D86856000325D4
:1009A000B540A84356008D68B5402843D8604D68CF
:1009B00005F08055B5F1805F6CD100BF394D2D68D1
:1009C00045F00105374E356035462D6805F00105C7
:1009D000009500BF00BF344D960855F826009507D6
:1009E0002E0F0F25B540A843304DAB4202D1002554
:1009F00015E04FE02E4DAB4201D101250FE02D4D0A
:100A0000AB4201D102250AE02B4DAB4201D10325B7
:100A100005E02A4DAB4201D1042500E005259607EB
:100A2000360FB5402843204D960845F82600244D42
:100A30002868A0434D6805F48035B5F5803F00D1A6
:100A400020431F4D28602D1D2868A0434D6805F4E4
:100A50000035B5F5003F00D12043194D2D1D28600C
:100A60002D1D2868A0434D6805F48015B5F5801F3D
:100A700000D12043124D083528602D1D2868A04361
:100A80004D6805F40015B5F5001F00D120430C4D4D
:100A90000C352860521C0D68D540002D7FF430AF16
:100AA00078BD0000203802400800014000000240EC
:100AB0000004024000080240000C02400010024006
:100AC00000040140024613690B400BB1012000E015
:100AD000002070470AB1816101E00B048361704717
:100AE0000148006870470000DC00002003480068EF
:100AF000034909680844014908607047DC00002088
:100B0000E400002010B50024032000F0B3F800201A
:100B100000F008F808B1012401E000F02FF82046A9
:100B200010BD000070B50446002511480068D8B11A
:100B30000F4800684FF47A71B1FBF0F00D49096875
:100B4000B1FBF0F6304600F009FD58B9102C07D281
:100B500000222146501E00F04FF80748046004E0D0
:100B6000012502E0012500E00125284670BD0000B6
:100B7000E4000020E8000020E000002008B500BFED
:100B80001448006840F000401249086008460068B8
:100B900000F00040009000BF00BF00BF081F0068C9
:100BA00040F00100091F08600846006800F00100DD
:100BB000009000BF00BF00BF081D006840F08050DB
:100BC000091D08600846006800F08050009000BFD2
:100BD00000BF08BD2438024001460846002809DB52
:100BE00000F01F0301229A4043099B0003F1E02318
:100BF000C3F8002100BF70472DE9F05F80460D4625
:100C00001646002701F086FB074639462A4633463A
:100C100001F00700C0F1070ABAF1040F02D94FF042
:100C2000040A01E0C0F1070AD14600F1040ABAF152
:100C3000070F02D24FF0000A01E0A0F1030AD446E8
:100C40004FF0010A0AFA09FAAAF1010A0AEA020AAD
:100C50000AFA0CFA4FF0010B0BFA0CFBABF1010B8B
:100C60000BEA030B4AEA0B042146404601F05AFB0B
:100C7000BDE8F09F00BF00F00702064B19684FF671
:100C8000FF031940044B0B4343EA0221014B196057
:100C900000BF70470CED00E00000FA052DE9F041BF
:100CA00004460D4614B90120BDE8F0817E48006875
:100CB00000F00100A84218D200BF012D05D17A48EA
:100CC000006840F00400784908607748006820F028
:100CD000010028437449086000BF0846006800F01E
:100CE0000100A84201D00120DEE7207800F00200D8
:100CF000022807D16D48006820F0F000A168084381
:100D00006A490860207800F0010000287FD0606800
:100D1000022807D165480838006800F40030F8B9A7
:100D20000120C1E76068032807D1604808380068DF
:100D300000F00070A0B90120B6E76068012807D173
:100D40005A480838006800F0020048B90120ABE7B3
:100D500056480838006800F4007008B90120A3E77D
:100D60005248006820F00300616808434F4908605A
:100D7000FFF7B6FE06466068022810D108E0FFF7CC
:100D8000AFFE801B41F28831884201D903208BE7F6
:100D90004648006800F00C000828F0D137E0606891
:100DA000032810D108E0FFF79BFE801B41F2883139
:100DB000884201D9032077E73C48006800F00C0026
:100DC0000C28F0D123E06068012810D108E0FFF77B
:100DD00087FE801B41F28831884201D9032063E7F6
:100DE0003248006800F00C000428F0D10FE008E061
:100DF000FFF776FE801B41F28831884201D903203B
:100E000052E72A48006800F00C000028F0D126487C
:100E1000006800F00100A84218D900BF012D05D1DB
:100E20002148006840F004001F4908601E4800681F
:100E300020F0010028431C49086000BF08460068F4
:100E400000F00100A84201D001202DE7207800F039
:100E50000400042807D11548006820F4E060E16828
:100E6000084312490860207800F00800082808D1DB
:100E70000E48006820F46050216940EAC1000B4927
:100E8000086000F01BF809490968C1F30311084A1A
:100E9000515CC8400749086007480068FFF742FEF8
:100EA0000746384600E70000003C02400838024090
:100EB000ED240008E8000020E0000020F0B51A4E04
:100EC000316801F00C0616B3042E04D0082E04D0AD
:100ED0000C2E1BD103E0154823E0154821E0154EE8
:100EE000C1F38347F25DC1F38156731C0E4E366821
:100EF00006F4803626B10E4E5643B6FBF3F403E0FB
:100F00000A4E5643B6FBF3F420460AE000BF064EF5
:100F1000361F3668C6F342356E1C0127B740F8030A
:100F200000BF00BFF0BD0000083802400024F400FC
:100F300000366E01E42400082DE9F843044614B994
:100F40000120BDE8F883FE48006800F00C06FC486C
:100F5000006800F48037207800F00100002875D088
:100F6000082E04D00C2E0ED1B7F5803F0BD1F448DB
:100F70000838006800F40030002867D06068002856
:100F800064D10120DDE700BF6068012808D1EC488A
:100F90000838006840F48030E949083908602DE0DD
:100FA000606868B9E6480838006820F48030E44991
:100FB000083908600846006820F4802008601DE0B9
:100FC000606805280DD1DE480838006840F48020AC
:100FD000DB49083908600846006840F48030086042
:100FE0000CE0D7480838006820F48030D44908392C
:100FF00008600846006820F48020086000BF606830
:1010000090B1FFF76DFD054606E0FFF769FD401B57
:10101000642801D9032094E7C9480838006800F41F
:1010200000300028F1D011E0FFF75AFD054606E038
:10103000FFF756FD401B642801D9032081E7C04813
:101040000838006800F400300028F1D1207800F062
:101050000200022853D1042E02D00C2E17D1B7B9AA
:10106000B7480838006800F0020020B1E0680128A5
:1010700001D0012065E7B248001F006820F4F85055
:10108000216940EA0120AE49091F086037E0E068A5
:1010900000B30120AB490860FFF722FD054606E0DA
:1010A000FFF71EFD401B022801D9032049E7A44891
:1010B0000838006800F002000028F1D0A048001FA6
:1010C000006820F4F850216940EA01209C49091F7A
:1010D000086014E000209B490860FFF701FD054609
:1010E00006E0FFF7FDFC401B022801D9032028E79A
:1010F00093480838006800F002000028F1D12078F9
:1011000000F01000102871D1F6BB8D480838006837
:1011100000F4007018B1A06908B9012011E78849EE
:10112000091F206A096801F46041884219D9206AC0
:1011300000F0AEFD08B1012003E78148001F006800
:1011400020F46040216A08437D49091F0860217F1F
:101150007B48001F006861F31F607949091F086020
:101160001AE07748001F006820F46040216A0843B5
:101170007349091F0860217F7148001F006861F3EF
:101180001F606F49091F00E020E00860206A00F03E
:101190007FFD08B10120D4E60121206A01EB503126
:1011A00001208840C00366490968C1F30311664AFB
:1011B000515CC8406549086065480068FFF7B2FCAB
:1011C0008046B8F1000F42D04046BAE6A06948B365
:1011D00001205C490862FFF783FC054607E0FFF742
:1011E0007FFC401B022802D90320AAE62FE05448C6
:1011F0000838006800F400700028F0D05048001F44
:10120000006820F46040216A08434D49091F0860C6
:10121000217F4B48001F006861F31F604849091F88
:10122000086014E0002047490862FFF759FC0546B2
:1012300006E0FFF755FC401B022801D9032080E699
:101240003F480838006800F400700028F1D1207889
:1012500000F0080008282CD16069A8B101203D49A0
:101260000860FFF73DFC054606E0FFF739FC401B30
:10127000022801D9032064E631482C30006800F0D0
:1012800002000028F1D014E0002032490860FFF786
:1012900027FC054606E0FFF723FC401B022801D986
:1012A00003204EE626482C30006800F0020000289B
:1012B000F1D1207800F0040004286ED14FF000092D
:1012C0001F481C30006800F0805088B900BF1C48DF
:1012D0001C30006840F0805019491C3108600846F5
:1012E000006800F08050009000BF00BF4FF001097F
:1012F0001948006800F48070B0B91748006840F4DD
:10130000807015490860FFF7EBFB054606E0FFF724
:10131000E7FB401B642801D9032012E60E48006851
:1013200000F480700028F2D000BFA068012817D117
:1013300003482C30006840F4807001492C310DE0E6
:101340000838024000004742ED240008E800002071
:10135000E00000208006474200700040086028E05E
:10136000A06858B96648006820F480706449086035
:101370000846006820F4806008601AE0A06805282C
:101380000CD15F48006840F480605D490860084601
:10139000006840F4807008600BE040E05848006846
:1013A00020F48070564908600846006820F4806088
:1013B000086000BFA06898B1FFF792FB054608E0FF
:1013C000FFF78EFB401B41F28831884201D9032090
:1013D000B7E54B48006800F400700028F0D012E038
:1013E000FFF77EFB054608E0FFF77AFB401B41F262
:1013F0008831884201D90320A3E54148006800F400
:1014000000700028F0D1B9F1010F07D13C48103825
:10141000006820F080503A491039086000BF606AC7
:10142000A8B30C2E52D0606A022839D10020354969
:101430000866FFF755FB054606E0FFF751FB401B2A
:10144000022801D903207CE52D483438006800F0DB
:1014500000700028F1D1D4E90A010843216B084348
:1014600027492C39096821F47D01084324492C3986
:101470000860012023490866FFF732FB054607E0B4
:10148000FFF72EFB401B022802D9032059E535E067
:101490001B483438006800F000700028F0D02DE0C0
:1014A000002018490866FFF71BFB054606E0FFF71A
:1014B00017FB401B022801D9032042E510483438AD
:1014C000006800F000700028F1D117E0606A012880
:1014D00000D136E50A482C38076807F48031A06A45
:1014E000814209D107F47011E06A814204D107F406
:1014F0004001206B814201D0012022E5002020E53F
:10150000343802400000474200B5FFF7BBF90F48EE
:101510000088012803D00E480088012805D10D4815
:101520000088401C0B49088004E00020094908801D
:101530000949088007480088B0F5FA7F04DD0648AD
:101540000088401C0449088000BD0000EC00002019
:10155000EE000020F2000020F000002070B50446EC
:101560002546681EB0F1807F01D301200FE0681E80
:101570004FF0E02148610F214FF0FF3000F0D2FE24
:1015800000204FF0E021886107200861002070BD35
:1015900010B5FFF7B9FF10BD10B5024600BF92F8B5
:1015A0003800012801D1022010BD012082F8380046
:1015B00000BF022082F83900106843681068846810
:1015C00023F070030868034324F080044868044350
:1015D0001068436010688460012082F8390000BF01
:1015E000002082F8380000BF00BFDDE710B50446D8
:1015F0000CB9012010BD94F8390028B9002084F8F6
:101600003800204600F00CF8022084F83900211D33
:10161000206800F0FDFC012084F839000020E9E793
:1016200038B504462068B0F1804F15D100BF0B4893
:10163000006840F00100094908600846006800F0B1
:101640000100009000BF00BF002211461C20FFF7E0
:10165000D3FA1C20FFF7C0FA38BD0000243802403E
:1016600001460868C06840F001000B68D86008684F
:10167000806800F00702062A05D00868006840F07C
:1016800001000B681860002070472DE9F041044606
:101690000D4600BF94F83800012802D10220BDE8B1
:1016A000F081012084F8380000BF022084F839005E
:1016B0002068866826F0770626F47F4620688660D4
:1016C0002868502833D00CDC202850D004DC0028B7
:1016D0004BD0102851D149E0302849D040284CD176
:1016E00039E060282DD0702807D0B0F5805F03D096
:1016F000B0F5005F41D10DE040E0D5E902136A6822
:10170000206800F0CDFC2068866846F077062068E7
:10171000866033E0D5E902136A68206800F0C0FCF7
:101720002068806840F480402168886026E0EA688C
:101730006968206800F0C8FC5021206800F0BBFCFC
:101740001CE0EA686968206800F0D1FC602120682C
:1017500000F0B1FC12E0EA686968206800F0B4FCAF
:101760004021206800F0A7FC08E000BF00BF00BFD8
:101770002968206800F09FFC00E000BF00BF012046
:1017800084F8390000BF002084F8380000BF00BF93
:1017900085E7704710B5044620680069C0F3400033
:1017A000D8B12068C068C0F34000B0B16FF002004B
:1017B00021680861012020762068806900F003001C
:1017C00018B12046FFF7E5FF05E0204600F08BF852
:1017D000204600F089F80020207620680069C0F3D8
:1017E0008000D8B12068C068C0F38000B0B16FF04D
:1017F000040021680861022020762068806900F4D6
:10180000407018B12046FFF7C4FF05E0204600F005
:101810006AF8204600F068F8002020762068006909
:10182000C0F3C000D8B12068C068C0F3C000B0B138
:101830006FF0080021680861042020762068C069E4
:1018400000F0030018B12046FFF7A3FF05E0204693
:1018500000F049F8204600F047F800202076206884
:101860000069C0F30010D8B12068C068C0F3001050
:10187000B0B16FF010002168086108202076206860
:10188000C06900F4407018B12046FFF782FF05E000
:10189000204600F028F8204600F026F800202076A8
:1018A0002068006900F0010058B12068C06800F0AD
:1018B000010030B16FF0010021680861204600F09E
:1018C00015F820680069C0F3801058B12068C0681E
:1018D000C0F3801030B16FF04000216808612046ED
:1018E00000F00CF810BD704770470000024909680D
:1018F000491C014A1160704700000020704700BF7A
:10190000FEE7000010B50E4B1B88984204D00C4B2C
:10191000188001230B4C23810B4B1B88994204D068
:10192000094B19800123094C2381094B1B889A42DA
:1019300004D0074B1A800123064C238110BD000000
:1019400018000020A40000201A000020B000002091
:101950001C000020BC00002070B504460D46164651
:10196000FEF790FF14490968884202D2002012490C
:101970000860FEF787FF10490968401AB0F57A7FC2
:1019800006D9FEF77FFF0C49086001200B4908814A
:101990000B480088A84204D0094805800120094965
:1019A000088109480088A04204D00748048001202B
:1019B0000649088170BD000020000020980000202A
:1019C000240000208C000020260000208000002041
:1019D0002DE9F04180460C4615461E46069F288993
:1019E000012807D1012C05D12946404600F077F89F
:1019F000002028813089012807D1022C05D13146E9
:101A0000404600F06CF8002030813889012807D169
:101A1000032C05D13946404600F061F8002038819A
:101A2000BDE8F08170B506460C46154620890128B0
:101A300007D12146304600F052F8002020810120D5
:101A4000288170BD2DE9F04107460E4614461D461B
:101A50003089012805D13146384600F040F8002091
:101A600030812089012805D12146384600F037F819
:101A7000002020812889012805D12946384600F018
:101A80002EF800202881BDE8F0812DE9F041804644
:101A90000C4615461E46069F012C08D128890128B0
:101AA00005D12946404600F01AF800202881022C72
:101AB00008D13089012805D13146404600F00FF8A1
:101AC00000203081032C08D13889012805D13946FE
:101AD000404600F004F800203881BDE8F08170B580
:101AE00005460C46A27921792846FEF771FC284666
:101AF0002168FEF78AFD70BD00B587B0142102A8E9
:101B0000FEF733FB00BF4048006840F004003E4948
:101B100008600846006800F00400019000BF00BFA4
:101B200000BF0846006840F00100086008460068F1
:101B300000F00100019000BF00BF00BF0846006830
:101B400040F0020008600846006800F002000190C2
:101B500000BF00BF00BF0846006840F008000860F2
:101B60000846006800F00800019000BF00BF002296
:101B700043F2CF112548FEF7ADFF002248F60301DE
:101B80002348FEF7A7FF00224FF450412148FEF7FB
:101B9000A1FF43F2CF100290012003900020049097
:101BA000059002A91948FEF7A5FE48F60300029029
:101BB0000120039000200490059002A91448FEF72C
:101BC00099FE4FF4504002900120039000200490B1
:101BD000059002A90F48FEF78DFE04200290002018
:101BE00003900120049002A90B48FEF783FE3820E1
:101BF0000290002003900120049002A90548FEF7FE
:101C000079FE07B000BD00001C3802400008024009
:101C10000000024000040240000C024000B587B002
:101C200000200390049005900690019002904FF0E0
:101C30008040144908604FF47A50486000211148F0
:101C400081604FF47A71C160002101614161FFF749
:101C5000CDFC08B1FEF715FE4FF48050039003A9A8
:101C60000848FFF712FD08B1FEF70BFE00200190B7
:101C7000029001A90348FFF78FFC08B1FEF701FEAF
:101C800007B000BD5001002000BFFEE7704770475D
:101C900018B5034600222548006800F0F00050BB4C
:101CA00022481C30006800F0805020B120480068B5
:101CB00000F4C05118E000BF1C481C30006840F020
:101CC00080501A4C1C3420602046006800F0805080
:101CD000009000BF00BF1648006800F4C0512046C5
:101CE000006820F080502060B1F5C05F03D1B3F5EB
:101CF000404F00D1012200BF012A05D10D480068E4
:101D000040F004000B4C20600A48006820F00100FD
:101D10001043084C206000BF2046006800F001001E
:101D2000904201D0012018BD0020FCE70838024095
:101D300000700040003C02402DE9F04706460F4687
:101D400014461D46DDE90889002239463046FEF773
:101D5000C1FE002229462046FEF7BCFE002249466D
:101D60004046FEF7B7FEBDE8F08700001CB53D48D1
:101D7000008888B901203C4908230A46CDE90010B3
:101D80000421394800F07DF836480088401C354968
:101D9000088000203549086032480088012815D1A4
:101DA00032480068022811D302202F490346304AE6
:101DB000CDE900100121104600F063F829480088A1
:101DC000401C2849088000202849086025480088D0
:101DD000022817D12548006826490988884211D36E
:101DE000022021490346224ACDE900100121104674
:101DF000FFF7A2FF1B480088401C1A4908800020FA
:101E00001A49086017480088032817D11748006846
:101E100019490988884211D30120134908230A4629
:101E2000CDE9001004211048FFF786FF0D48008817
:101E3000401C0C49088000200C49086009480088B3
:101E400004280DD10D480088C0EB00108000074920
:101E50000968884204D800200449086001490880C4
:101E60001CBD00000E000020000802400000002001
:101E700000000240040000200800002006000020AE
:101E800070472DE9F04706460F4614461D46DDE92A
:101E90000889012239463046FEF71CFE01222946F8
:101EA0002046FEF717FE012249464046FEF712FE85
:101EB000BDE8F087F0B53C233C24194D194E366837
:101EC0004FF46167B6FBF7F606800688C6EB061688
:101ED000B600C6EB0616134F3F68A7EB86063C27F5
:101EE000B6FBF7F60E800688C6EB0616B600C6EB04
:101EF00006160C4F3F88A7EB86060F88C7EB07171F
:101F0000A6EB87061680074E36686F1EBE4205D3C5
:101F10000026044F3E6006800E801680F0BD000053
:101F2000805101000000002010B5FEF7DFFDFFF733
:101F30002FFB10BD00B593B0342106A8FEF715F9AC
:101F4000142101A8FEF711F91348006820F4C050CD
:101F500040F40060104908600220069001200990BA
:101F600010200A9000200F9006A8FEF7E5FF08B1A8
:101F7000FEF787FC0F2001900120029000200390C3
:101F800004900590002101A8FEF788FE08B1FEF735
:101F900078FC13B000BD00000070004014480068D9
:101FA00040F48070124908601148083000681149F7
:101FB00008400F49083108600D4800680E49084084
:101FC0000B4908600846006820F480200860084833
:101FD0000830006820F47D000549083108600020C1
:101FE000091D08604FF00060044908607047000058
:101FF000003802400CC0FF88FEFFFEEE08ED00E056
:1020000010B50248FFF7C6FB10BD000050010020CC
:1020100010B50268B0F1804F0BD01B4B984208D02E
:102020001A4B984205D01A4B984202D0194B98424D
:1020300003D122F070024B681A43B0F1804F11D0E7
:10204000114B98420ED0114B98420BD0104B984236
:1020500008D0104B984205D00F4B984202D00F4B3E
:10206000984203D122F44072CB681A4322F08003D5
:102070000C6943EA040202608B68C3620B688362E6
:102080000123436110BD000000040040000800402F
:10209000000C004000080140000C0140001001400D
:1020A00030B50C46816821F47F4142EA032525437F
:1020B0002943816030BD0A46816821F0700142F0F9
:1020C000070319438160704730B50B461446026A16
:1020D000056A25F001050562816921F0F00141EAF8
:1020E000041122F00A021A438161026230BD30B548
:1020F0000B461446056A25F0100505628169026ADF
:1021000021F4704141EA043122F0A00242EA0312B4
:102110008161026230BD0000012006490881064944
:10212000088106490881064908810649088106494F
:10213000088170475C0000206800002074000020C7
:10214000A4000020B0000020BC00002038B50446E8
:102150000D460B4A0B492046FFF764FC0A480B4B1F
:102160000B4A294600902046FFF732FC09480A4BEB
:102170000A4A294600902046FFF787FC38BD000038
:10218000500000204400002074000020680000205F
:102190005C000020BC000020B0000020A400002053
:1021A00028B90749098911B90121064A1181012875
:1021B00005D10449098911B90121014A11817047EA
:1021C000440000205000002038B504460D460B4A5C
:1021D0000B492046FFF726FC0A480B4B0B4A2946C1
:1021E00000902046FFF7F4FB09480A4B0A4A2946AB
:1021F00000902046FFF749FC38BD00004400002055
:102200005000002074000020680000205C000020C6
:10221000BC000020B0000020A400002010B504463F
:10222000034B044A04492046FFF70CFC10BD000094
:10223000980000208C0000208000002070B504462B
:102240000E4615462146064800F04DF83146054831
:1022500000F049F82946044800F045F870BD000038
:10226000280000202B0000202E00002070B504461E
:102270000E4615462146064800F012F8314605483C
:1022800000F00EF82946044800F00AF870BD00007E
:1022900031000020370000203D00002000BFFEE795
:1022A00070B501220A2407E004EB84034FF6FF75A2
:1022B00005EA4304531C9AB291FBF4F3012BF3DAC1
:1022C000531E0BE00A2591FBF5F605FB161530357C
:1022D000C5540A2591FBF5F5A9B25B1E002BF1DA76
:1022E0002023835470BD0A2905DA3022027001F1DF
:1022F000300242700BE00A2291FBF2F2303202709F
:102300000A2291FBF2F302FB1312303242700022D8
:102310008270704702480068C0F3022070470000D6
:102320000CED00E010B5002804DB0A07130E054A87
:10233000135406E00A07140E034A00F00F031B1F94
:10234000D45410BD00E400E018ED00E002E008C83D
:10235000121F08C1002AFAD170477047002001E01F
:1023600001C1121F002AFBD1704700008CB0FEF79C
:10237000C9FBFFF7DFFDFFF7BFFBFFF74FFC464848
:10238000FFF76EF94FF4805044498200CDE90712FF
:10239000CDE90910C0004022414BCDE90332CDE91F
:1023A000051080204200CDE9002302900222102176
:1023B0003C48FDF795FF15E0002203213948FEF760
:1023C00007F839A13748FEF720F93A4800883A491A
:1023D0000988CDE9001039480388394A39493A4813
:1023E000FEF766F9384800880128E5D00022082168
:1023F0002C48FDF7EDFF35A12A48FEF706F90CE061
:1024000031480088FFF7CCFEFDF7CCFE2C48018850
:102410002448FFF7D9FEFEF705F92B48008800286D
:10242000EED038E02C4A2D492D48FFF743FDFFF749
:102430009DFC294802882948018829480088FFF71F
:102440008BFA254802882548018825480088FFF72F
:10245000F5FE1448FFF7E2FEFEF7E4F81A4800889C
:1024600050B919480088FFF79BFEFDF79BFE144802
:1024700001880C48FFF7A8FE1348008801280AD1FC
:1024800011480088FFF78CFE0D4801880548FFF7CA
:102490005DFEFEF7B7F9C5E75001002000040240D9
:1024A00000080240F80000204E68616E20454E543E
:1024B0004552000008000020060000200400002013
:1024C000100000200C0000200A00002030303A30BC
:1024D000303A3030000000001600002014000020C8
:1024E00012000020030406080C1018203000000021
:1024F00000000000000102030406070809000000B4
:1025000000010203040000005345545550202000F0
:1025100052756E6E696E67200000000054323A20DA
:10252000202020202020202050687574000000000A
:1025300054313A2020202020202020204769617932
:102540000000000054333A202020202020202020AA
:10255000476961790000000078250008000000202C
:10256000F80000004C23000870260008F800002046
:10257000980400005C230008000000000100020035
:102580000100010000000000010000000000000048
:10259000000000000000000000000000000000003B
:1025A000000000000000000000000000000000002B
:1025B00000000000000000000000000010250008DE
:1025C00000000000000000000825000800000000D6
:1025D000000000003025000800000100010000009C
:1025E0001C2500080000010001000000442500082F
:1025F0000000010001000000280000200800000089
:10260000010000002B0000200B0000000100000072
:102610002E0000200E00000001000000310000200C
:102620000400020001000000370000200400020046
:10263000010000003D000020040002000100000035
:10264000000000000000000000000000000000008A
:102650000000000000000000100000000100000069
:1026600068FF1F00000000000000000000000000E4
:0400000508000125C9
:00000001FF
