:020000040800F2
:10000000C005002039010008D92000084B1D000858
:10001000D5200008810300084927000800000000DF
:100020000000000000000000000000002D23000878
:100030005D09000800000000DB200008D52300084F
:100040005301000853010008530100085301000840
:100050005301000853010008530100085301000830
:100060005F090008690900087309000853010008C6
:100070005301000853010008530100085301000810
:100080005301000853010008530100085301000800
:100090005301000853010008530100087D090008BE
:1000A000000000005301000853010008530100083C
:1000B000AD24000853010008530100085301000853
:1000C00053010008530100085301000853010008C0
:1000D00053010008530100085301000853010008B0
:1000E00053010008530100085301000853010008A0
:1000F00053010008000000005301000853010008EC
:100100000000000000000000530100085301000837
:1001100053010008530100085301000800000000CB
:1001200053010008DFF80CD000F02AF8004800471F
:1001300019280008C00500200648804706480047E7
:10014000FEE7FEE7FEE7FEE7FEE7FEE7FEE7FEE787
:10015000FEE7FEE74924000825010008D2B201E0CD
:1001600000F8012B491EFBD270470022F6E710B5BC
:1001700013460A4604461946FFF7F0FF204610BD15
:10018000064C074D06E0E06840F0010394E80700E4
:1001900098471034AC42F6D3FFF7C8FF082A00088E
:1001A000282A000810B516480168164800F067F8BC
:1001B00013480168144800F057F8114808210268F4
:1001C000124800F0B7F80E48102102680F4800F0FE
:1001D0005FF80F4B1B889AB20E4B1B8899B20E4BDF
:1001E0001B8898B201F0B4FD094B1B889AB2094BE9
:1001F0001B8899B2084B1B8898B202F08DFA10BD8B
:10020000E4000020D4000020D600002000040240BA
:10021000E0000020DC000020D80000202DE9F041A3
:1002200004460D4616461F46DDF81880224620215A
:10023000094800F055F8208801280BD1074930689B
:1002400008600749386808600649D8F80000086067
:1002500000202880BDE8F08100040240D800002082
:10026000DC000020E00000200288012A06D10A6894
:1002700012B10A68521E0A60022202807047028888
:10028000012A04D10A68521C0A60022202807047C7
:1002900070B505460E4614463146284600F02CFE41
:1002A00070B901200B4908800B480088C82807DD79
:1002B000206828B10020084908802068401E20607E
:1002C0003146064800F018FE012802D100200149FD
:1002D000088070BD020100200601002000040240D9
:1002E00070B505460E4614463146284600F004FE19
:1002F00080B9208870B901200C4908800C4800881A
:10030000B0F5FA6F06DD0120208000200849088042
:10031000064908803146284600F0EEFD012804D148
:100320000020034908800149088070BD04010020B5
:100330000A01002070B505460E461446314628468F
:1003400000F0DAFD60B901200A4908800A480088F7
:10035000C82805DD0020084908802068401C20606E
:100360003146064800F0C8FD012802D100200149AD
:10037000088070BD0001002006010020000402403A
:1003800000BFFEE72DE9F05F04460D4616461F4606
:10039000DDE90CABDDE90A890020383404F8380CBB
:1003A00004F8375C04F8366C44F8347C24F8308C5C
:1003B00044F82C9C24F828AC44F804BC0E98208007
:1003C0000F986060109820811198E0601298208248
:1003D0001398606114982083282060770620A07607
:1003E0000C20E07614202077383C322000F03CF8D6
:1003F00000223321204600F06BF8052000F034F88D
:1004000000223321204600F063F8052000F02CF88C
:1004100000223221204600F05BF8052000F024F88D
:1004200094F852100022204600F052F894F853102D
:100430000022204600F04CF894F854100022204688
:1004400000F046F894F855100022204600F040F8DD
:1004500000220121204600F03BF800220221204624
:1004600000F036F8BDE8F09F10B50446204600F0D5
:1004700089FB10BDF8B504460D461646002713A0AB
:10048000006800906078A84202DC6078401EC5B227
:10049000A078B04202DCA078401EC6B21DF806006B
:1004A0002844C7B22078102806D147F080010022E6
:1004B000204600F08BF807E0207828B947F080014B
:1004C0000022204600F004F8F8BD0000004014545B
:1004D0002DE9F04104460F4690463D113E46B8F1E5
:1004E000000F05D121890022606800F00DFD07E0B2
:1004F000B8F1010F04D121890122606800F004FDE8
:1005000005F001020C34A18DA06A00F0FDFCA18E63
:10051000C5F34002206B00F0F7FCA18FC5F3800209
:10052000A06B00F0F1FCB4F84410C5F3C002206CDD
:1005300000F0EAFCA1880022206800F0E5FC012020
:10054000FFF792FFA1880122206800F0DDFC012066
:10055000FFF78AFFA1880022206800F0D5FC012067
:10056000FFF782FF06F00102A18DA06A00F0CCFC2B
:10057000A18EC6F34002206B00F0C6FCA18FC6F32B
:100580008002A06B00F0C0FCB4F84410C6F3C002B7
:10059000206C00F0B9FCA1880022206800F0B4FCB7
:1005A0000120FFF761FFA1880122206800F0ACFC68
:1005B0000120FFF759FFA18854F80C09002200F030
:1005C000A3FC0120FFF750FFBDE8F08170B50446A1
:1005D0000D4616462EB921890022606800F094FC71
:1005E00006E0012E04D121890122606800F08CFC14
:1005F00005F00102218B606900F086FC218CC5F3B7
:100600004002E06900F080FC218DC5F38002606A41
:1006100000F07AFC218EC5F3C002E06A00F074FCA1
:10062000218FC5F30012606B00F06EFCB4F840102F
:10063000C5F34012E06B00F067FCB4F84810C5F356
:100640008012606C00F060FCEA09B4F85010E06CB5
:1006500000F05AFC218A0022E06800F055FC0120DD
:10066000FFF702FF218A0122E06800F04DFC012023
:10067000FFF7FAFE218A0022E06800F045FC012025
:10068000FFF7F2FE70BD70B504460D4620781028C5
:1006900005D1012229462046FFF798FF06E0207881
:1006A00020B9012229462046FFF712FF70BD70B520
:1006B00005460C4604E014F8011B2846FFF7E3FF4B
:1006C00020780028F7D170BD1CB50C480C490D4BA3
:1006D0000D4ACDE900100D490D4800F037F80A49E0
:1006E0000B48008800F094F80948008800F0D2F820
:1006F0000748008800F00EF81CBD00000C00002028
:100700000800002004000020160000201200002035
:100710001000002010B504469CB91021094800F0D3
:10072000EBFB28B90848008810B901200649088069
:100730001021044800F0E0FB012802D1002002490A
:10074000088010BD00040240D60000202DE9FC47BF
:100750000446884691461D46DDE90A670421234880
:1007600000F0CAFB10B90120214908802048008808
:10077000012838D104211D4800F0BEFB012832D1E8
:1007800000201B490880208810B90120208001E04A
:10079000002020802088012816D1A8F800001548E4
:1007A00000682860144800683060144800683860A9
:1007B00038683168CDE9001011482B68114902688A
:1007C000114800F09BF908E00A49286808600A49C6
:1007D000306808600949386808600120A9F80000FD
:1007E00004480A490860BDE8FC870000000C02408C
:1007F000D0000020D8000020DC000020E000002015
:10080000EC00002000FD010810F80108E4000020C1
:1008100070B505460C462021184800F06DFB10B954
:1008200001201749088016480088012825D1202179
:10083000124800F061FB01281FD101F0C3FE002027
:100840000F4908802088032802D10120208002E07F
:100850002088401C20802088012802D109480A49AC
:1008600008602088022802D10848074908602088CB
:10087000032802D106480449086070BD0004024004
:10088000D2000020D8000020E4000020DC0000207E
:10089000E000002010B504469CB90821094800F08A
:1008A0002BFB28B90848008810B9012006490880A8
:1008B0000821044800F020FB012802D10020024951
:1008C000088010BD00040240D40000201CB51D4863
:1008D0000088012819D11C4908230A46CDE90010D7
:1008E0000421194801F04EFC022017490346174A1B
:1008F000CDE900100121104601F044FC002014490C
:100900000880144908600F49088013480088C0B95E
:1009100001200D4908230A46CDE9001004210A48A8
:1009200001F030FC022008490346084ACDE90010D6
:100930000121104601F026FC0020054908800549E8
:1009400008601CBD120000200008024000000240A8
:10095000140000200000002010000020704710B597
:10096000042000F0D3F910BD10B5082000F0CEF936
:1009700010BD10B5102000F0C9F910BD10B5202031
:1009800000F0C4F910BD70470021094A51610949BE
:10099000096841F40071074A11601146096841F085
:1009A00008011160002120F0FF0211607047000073
:1009B000A4010020043C0240014608687047000082
:1009C00000202749096801F48071B1F5807F07D1C3
:1009D0002449496941F00201224A516140F4807082
:1009E0001F49096801F40071B1F5007F07D11D4965
:1009F000496941F001011B4A516140F400701849F6
:100A0000096801F40061B1F5006F07D11549496922
:100A100041F00401134A516140F400601049096833
:100A200001F40051B1F5005F07D10E49496941F069
:100A300010010C4A516140F400500949096801F461
:100A40008051B1F5805F07D10649496941F0200125
:100A5000044A516140F48050014908607047000029
:100A6000183C0240A401002070B5044600F052FA80
:100A7000054609E0601C38B124B100F04BFA401B78
:100A8000A04201D9032070BD1B48006800F001009E
:100A90000028EFD11848006800F00200022801D1B8
:100AA000154908601448006800F48070B0F5807F34
:100AB0001BD01148006800F40060B0F5006F14D03E
:100AC0000D48006800F40050B0F5005F0DD00A48F2
:100AD000006800F48050B0F5805F06D006480068DA
:100AE00000F40070B0F5007F03D1FFF769FF01202B
:100AF000C9E70020C7E70000183C02402DE9FF4786
:100B000004460D4617461E46DDE90C8900F0CAF87A
:100B1000002001900294281B000A039000200090FE
:100B2000694601A800F042F83A462146022000F04A
:100B30008FF83246211D022000F08AF8424604F167
:100B40000801022000F084F84A4604F10C0102205A
:100B500000F07EF800F072F8BDE8FF8707480068F3
:100B6000401C06490860084600680549884202D3CF
:100B70000020024908600148006870470C0100200D
:100B80001858260570B5044600F0C4F906462546F7
:100B9000681C10B104480068054400BF00F0BAF9B1
:100BA000801BA842FAD370BDF80000202DE9F04167
:100BB00004460E460127002500BF1E48007C012880
:100BC00002D10220BDE8F08101201A49087400BF5B
:100BD0004CF25030FFF748FF07461FBB4FF0FF3085
:100BE0003060656817E02846FFF7CEFE4CF25030C3
:100BF000FFF73AFF07461048006820F008000E494A
:100C000008600846006820F4007008600FB1356085
:100C100007E005F58075D4E9011001EB0020A8423A
:100C2000E1D800BF00BF00200249087400BF384669
:100C3000C8E70000A4010020043C0240034800680B
:100C400040F002000149086000207047043C024067
:100C50002DE9F04107460C461546012600BF104815
:100C6000007C012802D10220BDE8F08101200C495E
:100C7000087400BF4CF25030FFF7F6FE064646B946
:100C800000200749486125604CF25030FFF7ECFE28
:100C9000064600BF00200249087400BF3046E3E763
:100CA000A40100201348006800F0020002281FD1B0
:100CB0001048006800F0010060B10F480D4908318C
:100CC00008600E4808600B48006800F0010008B199
:100CD000012070470A4807490C310860094808603C
:100CE0000448006800F00200022801D10120F0E76A
:100CF0000020EEE7043C0240EFCDAB89050403027F
:100D0000BFAE9D8C161514137047000010B5044635
:100D100004480068204020B1024804602046FFF7E4
:100D2000F3FF10BD1404014078B5034600220024EF
:100D30000020CAE0012696400D6805EA0604002C52
:100D400071D04D68022D02D04D68122D13D1D608F6
:100D500003F1200555F826005507EE0E0F25B54086
:100D6000A8435607F60E0D69B5402843D60803F18F
:100D7000200545F82600186856000325B540A8430D
:100D80000D7905F003055600B540284318604D68FD
:100D9000012D08D04D68022D05D04D68112D02D0CF
:100DA0004D68122D13D1986856000325B540A8430D
:100DB0005600CD68B5402843986058680125954095
:100DC000A8430D79C5F30015954028435860D868AD
:100DD00056000325B540A84356008D68B54028430A
:100DE000D8604D6805F08055B5F1805F6CD100BFCB
:100DF000394D2D6845F00105374E356035462D6873
:100E000005F00105009500BF00BF344D960855F868
:100E1000260095072E0F0F25B540A843304DAB4255
:100E200002D1002515E04FE02E4DAB4201D1012546
:100E30000FE02D4DAB4201D102250AE02B4DAB4214
:100E400001D1032505E02A4DAB4201D1042500E084
:100E500005259607360FB5402843204D960845F8DE
:100E60002600244D2868A0434D6805F48035B5F56B
:100E7000803F00D120431F4D28602D1D2868A043CE
:100E80004D6805F40035B5F5003F00D12043194DFC
:100E90002D1D28602D1D2868A0434D6805F4801580
:100EA000B5F5801F00D12043124D083528602D1D57
:100EB0002868A0434D6805F40015B5F5001F00D162
:100EC00020430C4D0C352860521C0D68D540002D78
:100ED0007FF430AF78BD00002038024008000140A8
:100EE000000002400004024000080240000C0240E2
:100EF0000010024000040140024613690B400BB190
:100F0000012000E0002070470AB1816101E00B047C
:100F1000836170470148006870470000F0000020BE
:100F2000034800680349096808440149086070479C
:100F3000F0000020F800002010B50024032000F08D
:100F4000B3F8002000F008F808B1012401E000F037
:100F50002FF8204610BD000070B50446002511484A
:100F60000068D8B10F4800684FF47A71B1FBF0F017
:100F70000D490968B1FBF0F6304600F015FD58B98F
:100F8000102C07D200222146501E00F04FF80748CF
:100F9000046004E0012502E0012500E00125284667
:100FA00070BD0000F8000020FC000020F4000020CC
:100FB00008B500BF1448006840F0004012490860BE
:100FC0000846006800F00040009000BF00BF00BF6E
:100FD000081F006840F00100091F0860084600680B
:100FE00000F00100009000BF00BF00BF081D0068B6
:100FF00040F08050091D08600846006800F08050ED
:10100000009000BF00BF08BD2438024001460846DA
:10101000002809DB00F01F0301229A4043099B00CE
:1010200003F1E023C3F8002100BF70472DE9F05F12
:1010300080460D461646002701F0C2FB074639469A
:101040002A46334601F00700C0F1070ABAF1040F3F
:1010500002D94FF0040A01E0C0F1070AD14600F1BD
:10106000040ABAF1070F02D24FF0000A01E0A0F122
:10107000030AD4464FF0010A0AFA09FAAAF1010A52
:101080000AEA020A0AFA0CFA4FF0010B0BFA0CFBFF
:10109000ABF1010B0BEA030B4AEA0B042146404675
:1010A00001F096FBBDE8F09F00BF00F00702064B81
:1010B00019684FF6FF031940044B0B4343EA022122
:1010C000014B196000BF70470CED00E00000FA050D
:1010D0002DE9F04104460D4614B90120BDE8F08128
:1010E0007E48006800F00100A84218D200BF012D20
:1010F00005D17A48006840F00400784908607748D4
:10110000006820F0010028437449086000BF0846C9
:10111000006800F00100A84201D00120DEE720783D
:1011200000F00200022807D16D48006820F0F000AE
:10113000A16808436A490860207800F0010000288F
:101140007FD06068022807D165480838006800F43D
:101150000030F8B90120C1E76068032807D1604872
:101160000838006800F00070A0B90120B6E7606898
:10117000012807D15A480838006800F0020048B931
:101180000120ABE756480838006800F4007008B941
:101190000120A3E75248006820F00300616808437B
:1011A0004F490860FFF7B6FE06466068022810D176
:1011B00008E0FFF7AFFE801B41F28831884201D979
:1011C00003208BE74648006800F00C000828F0D1A7
:1011D00037E06068032810D108E0FFF79BFE801B12
:1011E00041F28831884201D9032077E73C48006802
:1011F00000F00C000C28F0D123E06068012810D129
:1012000008E0FFF787FE801B41F28831884201D950
:10121000032063E73248006800F00C000428F0D196
:101220000FE008E0FFF776FE801B41F2883188422C
:1012300001D9032052E72A48006800F00C0000287A
:10124000F0D12648006800F00100A84218D900BF7C
:10125000012D05D12148006840F004001F490860B5
:101260001E48006820F0010028431C49086000BFA8
:101270000846006800F00100A84201D001202DE7D7
:10128000207800F00400042807D11548006820F4F5
:10129000E060E168084312490860207800F0080027
:1012A000082808D10E48006820F46050216940EAFF
:1012B000C1000B49086000F01BF809490968C1F337
:1012C0000311084A515CC840074908600748006894
:1012D000FFF742FE0746384600E70000003C0240A8
:1012E000083802409D290008FC000020F40000207E
:1012F000F0B51A4E316801F00C0616B3042E04D076
:10130000082E04D00C2E1BD103E0154823E015480D
:1013100021E0154EC1F38347F25DC1F38156731C82
:101320000E4E366806F4803626B10E4E5643B6FB96
:10133000F3F403E00A4E5643B6FBF3F420460AE00A
:1013400000BF064E361F3668C6F342356E1C0127B5
:10135000B740F80300BF00BFF0BD000008380240EE
:101360000024F40000366E01942900082DE9F843AA
:10137000044614B90120BDE8F883FE48006800F077
:101380000C06FC48006800F48037207800F001006B
:10139000002875D0082E04D00C2E0ED1B7F5803F52
:1013A0000BD1F4480838006800F40030002867D0FA
:1013B0006068002864D10120DDE700BF6068012873
:1013C00008D1EC480838006840F48030E949083911
:1013D00008602DE0606868B9E6480838006820F4C5
:1013E0008030E449083908600846006820F480200D
:1013F00008601DE0606805280DD1DE4808380068E7
:1014000040F48020DB49083908600846006840F451
:10141000803008600CE0D7480838006820F480303D
:10142000D449083908600846006820F48020086024
:1014300000BF606890B1FFF76DFD054606E0FFF75D
:1014400069FD401B642801D9032094E7C948083886
:10145000006800F400300028F1D011E0FFF75AFDD9
:10146000054606E0FFF756FD401B642801D903201E
:1014700081E7C0480838006800F400300028F1D146
:10148000207800F00200022853D1042E02D00C2E46
:1014900017D1B7B9B7480838006800F0020020B18A
:1014A000E068012801D0012065E7B248001F00680C
:1014B00020F4F850216940EA0120AE49091F086074
:1014C00037E0E06800B30120AB490860FFF722FD78
:1014D000054606E0FFF71EFD401B022801D9032048
:1014E00049E7A4480838006800F002000028F1D05D
:1014F000A048001F006820F4F850216940EA01204C
:101500009C49091F086014E000209B490860FFF710
:1015100001FD054606E0FFF7FDFC401B022801D94E
:10152000032028E793480838006800F002000028EC
:10153000F1D1207800F01000102871D1F6BB8D4851
:101540000838006800F4007018B1A06908B90120DB
:1015500011E78849091F206A096801F4604188423F
:1015600019D9206A00F0BAFD08B1012003E78148CB
:10157000001F006820F46040216A08437D49091F6C
:101580000860217F7B48001F006861F31F60794974
:10159000091F08601AE07748001F006820F46040C7
:1015A000216A08437349091F0860217F7148001FA1
:1015B000006861F31F606F49091F00E020E00860C8
:1015C000206A00F08BFD08B10120D4E60121206AD9
:1015D00001EB503101208840C00366490968C1F31E
:1015E0000311664A515CC840654908606548006857
:1015F000FFF7B2FC8046B8F1000F42D04046BAE691
:10160000A06948B301205C490862FFF783FC0546E6
:1016100007E0FFF77FFC401B022802D90320AAE65F
:101620002FE054480838006800F400700028F0D01B
:101630005048001F006820F46040216A08434D496B
:10164000091F0860217F4B48001F006861F31F607D
:101650004849091F086014E0002047490862FFF765
:1016600059FC054606E0FFF755FC401B022801D94E
:10167000032080E63F480838006800F40070002826
:10168000F1D1207800F0080008282CD16069A8B1B9
:1016900001203D490860FFF73DFC054606E0FFF7E5
:1016A00039FC401B022801D9032064E631482C3064
:1016B000006800F002000028F1D014E00020324958
:1016C0000860FFF727FC054606E0FFF723FC401BF8
:1016D000022801D903204EE626482C30006800F08D
:1016E00002000028F1D1207800F0040004286ED117
:1016F0004FF000091F481C30006800F0805088B986
:1017000000BF1C481C30006840F0805019491C3153
:1017100008600846006800F08050009000BF00BFDD
:101720004FF001091948006800F48070B0B91748FB
:10173000006840F4807015490860FFF7EBFB054630
:1017400006E0FFF7E7FB401B642801D9032012E6FF
:101750000E48006800F480700028F2D000BFA06836
:10176000012817D103482C30006840F480700149EB
:101770002C310DE008380240000047429D29000846
:10178000FC000020F400002080064742007000406A
:10179000086028E0A06858B96648006820F48070A6
:1017A000644908600846006820F4806008601AE018
:1017B000A06805280CD15F48006840F480605D494E
:1017C00008600846006840F4807008600BE040E064
:1017D0005848006820F48070564908600846006840
:1017E00020F48060086000BFA06898B1FFF792FB0A
:1017F000054608E0FFF78EFB401B41F28831884226
:1018000001D90320B7E54B48006800F400700028B8
:10181000F0D012E0FFF77EFB054608E0FFF77AFB09
:10182000401B41F28831884201D90320A3E5414899
:10183000006800F400700028F0D1B9F1010F07D161
:101840003C481038006820F080503A491039086050
:1018500000BF606AA8B30C2E52D0606A022839D14A
:10186000002035490866FFF755FB054606E0FFF7FF
:1018700051FB401B022801D903207CE52D48343858
:10188000006800F000700028F1D1D4E90A01084393
:10189000216B084327492C39096821F47D0108434D
:1018A00024492C390860012023490866FFF732FBE0
:1018B000054607E0FFF72EFB401B022802D9032054
:1018C00059E535E01B483438006800F00070002806
:1018D000F0D02DE0002018490866FFF71BFB0546F5
:1018E00006E0FFF717FB401B022801D9032042E561
:1018F00010483438006800F000700028F1D117E07B
:10190000606A012800D136E50A482C38076807F4D8
:101910008031A06A814209D107F47011E06A8142E6
:1019200004D107F44001206B814201D0012022E55F
:10193000002020E5343802400000474200B5FFF7A0
:101940000DF913480088012804D112480088401C72
:101950001049088010480088012803D00F480088EB
:10196000012805D10E480088401C0D49088004E07C
:1019700000200B4908800B49088009480088B0F511
:10198000FA7F04DD07480088401C0649088000BD36
:10199000040100200A0100200001002002010020B3
:1019A000080100200601002070B504462546681E87
:1019B000B0F1807F01D301200FE0681E4FF0E021DD
:1019C00048610F214FF0FF3000F002FF00204FF080
:1019D000E021886107200861002070BD10B5FFF785
:1019E000ADFF10BD10B5024600BF92F838000128C7
:1019F00001D1022010BD012082F8380000BF022072
:101A000082F83900106843681068846823F0700316
:101A10000868034324F08004486804431068436066
:101A200010688460012082F8390000BF002082F82D
:101A3000380000BF00BFDDE710B504460CB9012037
:101A400010BD94F8390028B9002084F838002046E9
:101A500000F00CF8022084F83900211D206800F005
:101A60002DFD012084F839000020E9E738B504464F
:101A70002068B0F1804F15D100BF0B48006840F0DE
:101A80000100094908600846006800F00100009064
:101A900000BF00BF002211461C20FFF7C7FA1C2020
:101AA000FFF7B4FA38BD0000243802400146086848
:101AB000C06840F001000B68D8600868806800F0DA
:101AC0000702062A05D00868006840F001000B688C
:101AD0001860002070472DE9F04104460D4600BF14
:101AE00094F83800012802D10220BDE8F0810120DD
:101AF00084F8380000BF022084F839002068866826
:101B000026F0770626F47F462068866028685028ED
:101B100033D00CDC202850D004DC00284BD0102817
:101B200051D149E0302849D040284CD139E06028D3
:101B30002DD0702807D0B0F5805F03D0B0F5005FDE
:101B400041D10DE040E0D5E902136A68206800F059
:101B5000FDFC2068866846F077062068866033E0E2
:101B6000D5E902136A68206800F0F0FC20688068FC
:101B700040F480402168886026E0EA68696820684F
:101B800000F0F8FC5021206800F0EBFC1CE0EA6853
:101B90006968206800F001FD6021206800F0E1FC28
:101BA00012E0EA686968206800F0E4FC40212068DF
:101BB00000F0D7FC08E000BF00BF00BF2968206824
:101BC00000F0CFFC00E000BF00BF012084F8390026
:101BD00000BF002084F8380000BF00BF85E77047D1
:101BE00010B5044620680069C0F34000D8B12068F1
:101BF000C068C0F34000B0B16FF002002168086116
:101C0000012020762068806900F0030018B120468A
:101C1000FFF7E5FF05E0204600F08BF8204600F0D6
:101C200089F80020207620680069C0F38000D8B1D0
:101C30002068C068C0F38000B0B16FF00400216874
:101C40000861022020762068806900F4407018B195
:101C50002046FFF7C4FF05E0204600F06AF8204662
:101C600000F068F80020207620680069C0F3C0000A
:101C7000D8B12068C068C0F3C000B0B16FF00800F0
:101C800021680861042020762068C06900F0030004
:101C900018B12046FFF7A3FF05E0204600F049F801
:101CA000204600F047F80020207620680069C0F345
:101CB0000010D8B12068C068C0F30010B0B16FF058
:101CC000100021680861082020762068C06900F4AF
:101CD000407018B12046FFF782FF05E0204600F073
:101CE00028F8204600F026F80020207620680069B9
:101CF00000F0010058B12068C06800F0010030B168
:101D00006FF0010021680861204600F015F8206896
:101D10000069C0F3801058B12068C068C0F380101B
:101D200030B16FF0400021680861204600F00CF8E7
:101D300010BD70477047000002490968491C014AFC
:101D40001160704700000020704700BFFEE70000F0
:101D500010B50E4B1B88984204D00C4B1880012301
:101D60000B4C23810B4B1B88994204D0094B1980E3
:101D70000123094C2381094B1B889A4204D0074B4D
:101D80001A800123064C238110BD00002000002092
:101D9000AC00002022000020B80000202400002019
:101DA000C400002070B504460D461646FEF7D6FE68
:101DB00014490968884202D2002012490860FEF7DF
:101DC000CDFE10490968401AB0F57A7F06D9FEF7B2
:101DD000C5FE0C49086001200B4908810B480088AA
:101DE000A84204D009480580012009490881094812
:101DF0000088A04204D007480480012006490881D9
:101E000070BD000028000020A00000202C00002051
:101E1000940000202E000020880000202DE9F041D1
:101E200080460C4615461E46069F2889012807D184
:101E3000012C05D12946404600F077F80020288182
:101E40003089012807D1022C05D13146404600F0E7
:101E50006CF8002030813889012807D1032C05D186
:101E60003946404600F061F800203881BDE8F08135
:101E700070B506460C4615462089012807D1214633
:101E8000304600F052F8002020810120288170BDEA
:101E90002DE9F04107460E4614461D4630890128BB
:101EA00005D13146384600F040F8002030812089C5
:101EB000012805D12146384600F037F8002020815E
:101EC0002889012805D12946384600F02EF800203F
:101ED0002881BDE8F0812DE9F04180460C46154689
:101EE0001E46069F012C08D12889012805D12946C4
:101EF000404600F01AF800202881022C08D13089D1
:101F0000012805D13146404600F00FF8002030810D
:101F1000032C08D13889012805D13946404600F004
:101F200004F800203881BDE8F08170B505460C4604
:101F3000A27921792846FEF79DFA28462168FEF706
:101F4000B6FB70BD00B587B0142102A8FEF70DF9ED
:101F500000BF4048006840F004003E490860084661
:101F6000006800F00400019000BF00BF00BF0846F9
:101F7000006840F0010008600846006800F00100B9
:101F8000019000BF00BF00BF0846006840F002009B
:101F900008600846006800F00200019000BF00BF22
:101FA00000BF0846006840F0080008600846006866
:101FB00000F00800019000BF00BF002243F2CF11E3
:101FC0002548FEF7A1FF002248F603012348FEF74B
:101FD0009BFF00224FF450412148FEF795FF43F24A
:101FE000CF1002900120039000200490059002A9D8
:101FF0001948FEF799FE48F603000290012003906D
:1020000000200490059002A91448FEF78DFE4FF4BD
:10201000504002900120039000200490059002A9F6
:102020000F48FEF781FE042002900020039001205B
:10203000049002A90B48FEF777FE3820029000209A
:1020400003900120049002A90548FEF76DFE07B039
:1020500000BD00001C3802400008024000000240A1
:1020600000040240000C024000B587B0002003903D
:10207000049005900690019002904FF08040144922
:1020800008604FF47A5048600021114881604FF495
:102090007A71C160002101614161FFF7CDFC08B197
:1020A000FEF771FC4FF48050039003A90848FFF736
:1020B00012FD08B1FEF767FC00200190029001A913
:1020C0000348FFF78FFC08B1FEF75DFC07B000BDC9
:1020D0006801002000BFFEE77047704718B503464F
:1020E00000222548006800F0F00050BB22481C3058
:1020F000006800F0805020B12048006800F4C05112
:1021000018E000BF1C481C30006840F080501A4C9A
:102110001C3420602046006800F08050009000BF12
:1021200000BF1648006800F4C0512046006820F047
:1021300080502060B1F5C05F03D1B3F5404F00D1AE
:10214000012200BF012A05D10D48006840F00400BB
:102150000B4C20600A48006820F001001043084C36
:10216000206000BF2046006800F00100904201D0CE
:10217000012018BD0020FCE7083802400070004034
:10218000003C02402DE9F04706460F4614461D4626
:10219000DDE90889002239463046FEF7B5FE002207
:1021A00029462046FEF7B0FE002249464046FEF78B
:1021B000ABFEBDE8F08700002DE9F04104460D4676
:1021C00016461F4611480560114806601148076011
:1021D000012020800D48104908600E4B1B889AB2E0
:1021E0000B4B1B8899B203461B8898B2FFF7B0FDD2
:1021F000084B1B889AB2064B1B8899B2034B1B886D
:1022000098B200F089FABDE8F0810000D800002003
:10221000DC000020E0000020E40000201CB53C4869
:10222000008888B901203B4908230A46CDE90010FF
:102230000421384800F07BF835480088401C3449B8
:10224000088000203449086031480088012817D1EF
:102250003148006831490968884211D302202D496C
:1022600003462F4ACDE900100121104600F05FF827
:1022700027480088401C264908800020264908601D
:1022800023480088022817D1234800682549096897
:10229000884211D302201F490346214ACDE900108C
:1022A00001211046FFF76EFF19480088401C1849AD
:1022B000088000201849086015480088032817D1B5
:1022C0001548006815490968884211D30120114951
:1022D00008230A46CDE9001004210E48FFF752FFFB
:1022E0000B480088401C0A49088000200A49086001
:1022F0000748008804280AD1074800680A49096885
:10230000884204D3002004490860014908801CBDAC
:102310001400002000080240000000200C000020F3
:1023200000000240040000200800002070472DE952
:10233000F04706460F4614461D46DDE9088901228E
:1023400039463046FEF7E0FD012229462046FEF7D9
:10235000DBFD012249464046FEF7D6FDBDE8F08789
:10236000F0B53C233C24194D194E36684FF4616793
:10237000B6FBF7F606800688C6EB0616B600C6EB77
:102380000616134F3F68A7EB86063C27B6FBF7F609
:102390000E800688C6EB0616B600C6EB06160C4F76
:1023A0003F88A7EB86060F88C7EB0717A6EB8706C3
:1023B0001680074E36686F1EBE4205D30026044FB6
:1023C0003E6006800E801680F0BD00008051010046
:1023D0000000002010B5FEF7A3FDFFF7FFFA10BDC7
:1023E00000B593B0342106A8FDF7BFFE142101A863
:1023F000FDF7BBFE1348006820F4C05040F40060B5
:1024000010490860022006900120099010200A90CF
:1024100000200F9006A8FEF7A9FF08B1FEF7B3FA57
:102420000F2001900120029000200390049005905D
:10243000002101A8FEF74CFE08B1FEF7A4FA13B084
:1024400000BD0000007000401448006840F4807037
:1024500012490860114808300068114908400F49C6
:10246000083108600D4800680E4908400B490860B3
:102470000846006820F4802008600848083000689A
:1024800020F47D000549083108600020091D08601E
:102490004FF00060044908607047000000380240B7
:1024A0000CC0FF88FEFFFEEE08ED00E010B502480C
:1024B000FFF796FB10BD00006801002010B5026810
:1024C000B0F1804F0BD01B4B984208D01A4B98426A
:1024D00005D01A4B984202D0194B984203D122F0F2
:1024E00070024B681A43B0F1804F11D0114B9842E3
:1024F0000ED0114B98420BD0104B984208D0104B85
:10250000984205D00F4B984202D00F4B984203D10E
:1025100022F44072CB681A4322F080030C6943EA2C
:10252000040202608B68C3620B688362012343610B
:1025300010BD00000004004000080040000C0040F6
:1025400000080140000C01400010014030B50C466D
:10255000816821F47F4142EA0325254329438160B4
:1025600030BD0A46816821F0700142F0070319432B
:102570008160704730B50B461446026A056A25F043
:1025800001050562816921F0F00141EA041122F0A0
:102590000A021A438161026230BD30B50B4614460F
:1025A000056A25F0100505628169026A21F470410F
:1025B00041EA043122F0A00242EA03128161026280
:1025C00030BD0000012006490881064908810649FE
:1025D0000881064908810649088106490881704733
:1025E00064000020700000207C000020AC0000206F
:1025F000B8000020C400002038B504460D460B4A40
:102600000B492046FFF734FC0A480B4B0B4A29467E
:1026100000902046FFF702FC09480A4B0A4A294667
:1026200000902046FFF757FC38BD000058000020FE
:102630004C0000207C00002070000020640000207E
:10264000C4000020B8000020AC00002028B90749D1
:10265000098911B90121064A1181012805D10449CE
:10266000098911B90121014A118170474C000020EC
:102670005800002038B504460D460B4A0B49204649
:10268000FFF7F6FB0A480B4B0B4A29460090204601
:10269000FFF7C4FB09480A4B0A4A29460090204626
:1026A000FFF719FC38BD00004C0000205800002046
:1026B0007C0000207000002064000020C400002086
:1026C000B8000020AC00002010B50446034B044ABB
:1026D00004492046FFF7DCFB10BD0000A0000020ED
:1026E000940000208800002070B504460E46154670
:1026F0002146064800F04DF83146054800F049F8FB
:102700002946044800F045F870BD00003000002064
:10271000330000203600002070B504460E461546F2
:102720002146064800F012F83146054800F00EF840
:102730002946044800F00AF870BD00003900002066
:102740003F0000204500002000BFFEE770B50122D9
:102750000A2407E004EB84034FF6FF7505EA4304FF
:10276000531C9AB291FBF4F3012BF3DA531E0BE0E6
:102770000A2591FBF5F605FB16153035C5540A25DB
:1027800091FBF5F5A9B25B1E002BF1DA20238354EF
:1027900070BD0A2905DA3022027001F13002427060
:1027A0000BE00A2291FBF2F2303202700A2291FB16
:1027B000F2F302FB13123032427000228270704733
:1027C00002480068C0F30220704700000CED00E0F2
:1027D00010B5002804DB0A07130E054A135406E05F
:1027E0000A07140E034A00F00F031B1FD45410BD38
:1027F00000E400E018ED00E002E008C8121F08C184
:10280000002AFAD170477047002001E001C1121F71
:10281000002AFBD1704700008CB0FEF78DFBFFF75C
:10282000DFFDFFF78FFBFFF71FFC4948FFF73EF97D
:102830004FF4805047498200CDE90712CDE90910D5
:10284000C0004022444BCDE90332CDE90510802081
:102850004200CDE900230290022210213F48FDF7FB
:1028600091FD3F48FEF7A8F83E49088008460088D9
:10287000012811D13A48001DFEF79EF83A49086038
:1028800037480830FEF798F83849086034480C306B
:10289000FEF792F836490860002208212F48FDF71C
:1028A000E9FD34A12D48FDF702FF314803682F48A8
:1028B00002682D4801683248FFF77EFC46E0314A45
:1028C00031493248FFF74CFD2E4802882E480188D6
:1028D0002E480088FFF766FA2A4802882A480188AD
:1028E0002A480088FFF700FF1C48FFF7EDFEFDF7C0
:1028F000EBFE27480088C0B9FDF7E8FF1C481B4BDA
:10290000194A1F4900902248FDF788FC204800889A
:10291000FFF79CFE1A480088032801D0FDF742FC0F
:10292000174801880D48FFF7A5FE194800880128BF
:102930000CD1FFF773FC16480088FFF787FE10489C
:1029400001880648FFF758FEFDF7C0FFB7E7000013
:10295000680100200004024000080240100100202D
:1029600010F80108180000200400002008000020D2
:102970000C00002030303A30303A30300000000097
:10298000160000201E0000201C0000201A0000205D
:1029900010000020030406080C101820300000006E
:1029A00000000000000102030406070809000000FF
:1029B000000102030400000053455455502020003C
:1029C00052756E6E696E67200000000054313A2027
:1029D000202020202020202047696179000000006D
:1029E00054323A202020202020202020476961797D
:1029F0000000000054333A202020202020202020F6
:102A00004769617900000000282A000800000020C2
:102A100010010000F8270008382B000810010020E2
:102A2000B004000008280008000000000A000000B0
:102A30000A00000005000000010000000000010085
:102A40000000000000000000000000000000000086
:102A50000000000000000000000000000000000076
:102A60000000000000000000000000000000000066
:102A700000000000C0290008000000000000000065
:102A8000B82900080000000000000000CC29000860
:102A90000000010001000000E02900080000010022
:102AA00001000000F42900080000010001000000FE
:102AB000300000200800000001000000330000206A
:102AC0000B00000001000000360000200E00000096
:102AD0000100000039000020040002000100000095
:102AE0003F0000200400020001000000450000201B
:102AF00004000200010000000000000000000000CF
:102B000000000000000000000000000000000000C5
:102B100010F8010801000000000000001000000093
:102B20000100000068FF1F0000000000000000001E
:082B300000000000000000009D
:0400000508000125C9
:00000001FF
