:020000040800F2
:10000000D804002039010008E11B00086F17000820
:10001000DD1B0008A1020008E31E0008000000002C
:10002000000000000000000000000000BF1C0008ED
:10003000E905000800000000E31B0008F31C0008AD
:100040005301000853010008530100085301000840
:100050005301000853010008530100085301000830
:10006000EB050008F5050008FF050008530100082E
:100070005301000853010008530100085301000810
:100080005301000853010008530100085301000800
:100090005301000853010008530100080906000835
:1000A000000000005301000853010008530100083C
:1000B000CD1D00085301000853010008530100083A
:1000C00053010008530100085301000853010008C0
:1000D00053010008530100085301000853010008B0
:1000E00053010008530100085301000853010008A0
:1000F00053010008000000005301000853010008EC
:100100000000000000000000530100085301000837
:1001100053010008530100085301000800000000CB
:1001200053010008DFF80CD000F040F80048004709
:1001300019210008D80400200648804706480047D7
:10014000FEE7FEE7FEE7FEE7FEE7FEE7FEE7FEE787
:10015000FEE7FEE7691D000825010008D2B201E0B4
:1001600000F8012B491EFBD270470022F6E710B5BC
:1001700013460A4604461946FFF7F0FF204610BD15
:1001800030B50B46014600202022012409E021FA67
:1001900002F59D4205D303FA02F5491B04FA02F564
:1001A0002844151EA2F10102F1DC30BD064C074DBA
:1001B00006E0E06840F0010394E807009847103437
:1001C000AC42F6D3FFF7B2FF082400082824000849
:1001D0000288012A07D10A88002A02DD0A88521EF5
:1001E0000A800022028070470288012A04D10A880E
:1001F000521C0A80002202807047000070B505463C
:100200000E4614463146284600F098FB80B901207E
:100210000C4908800C480088B0F5C87F08DD2088AC
:10022000002805DD0020084908802088401E208025
:100230003146064800F082FB012802D10020014926
:10024000088070BD3A0000203C00002000040240FD
:1002500070B505460E4614463146284600F06EFB42
:1002600068B901200B4908800B480088B0F5C87FA9
:1002700005DD0020084908802088401C2080314688
:10028000064800F05BFB012802D1002001490880EC
:1002900070BD0000380000203C0000200004024037
:1002A00000BFFEE72DE9F05F04460D4616461F46E7
:1002B000DDE90CABDDE90A890020383404F8380C9C
:1002C00004F8375C04F8366C44F8347C24F8308C3D
:1002D00044F82C9C24F828AC44F804BC0E982080E8
:1002E0000F986060109820811198E0601298208229
:1002F0001398606114982083282060770620A076E8
:100300000C20E07614202077383C322000F03CF8B6
:1003100000223321204600F06BF8052000F034F86D
:1003200000223321204600F063F8052000F02CF86D
:1003300000223221204600F05BF8052000F024F86E
:1003400094F852100022204600F052F894F853100E
:100350000022204600F04CF894F854100022204669
:1003600000F046F894F855100022204600F040F8BE
:1003700000220121204600F03BF800220221204605
:1003800000F036F8BDE8F09F10B50446204600F0B6
:1003900041F910BDF8B504460D461646002713A0D6
:1003A000006800906078A84202DC6078401EC5B208
:1003B000A078B04202DCA078401EC6B21DF806004C
:1003C0002844C7B22078102806D147F080010022C7
:1003D000204600F08BF807E0207828B947F080012C
:1003E0000022204600F004F8F8BD0000004014543C
:1003F0002DE9F04104460F4690463D113E46B8F1C6
:10040000000F05D121890022606800F09FFA07E003
:10041000B8F1010F04D121890122606800F096FA39
:1004200005F001020C34A18DA06A00F08FFAA18EB4
:10043000C5F34002206B00F089FAA18FC5F380025A
:10044000A06B00F083FAB4F84410C5F3C002206C2E
:1004500000F07CFAA1880022206800F077FA0120E1
:10046000FFF792FFA1880122206800F06FFA0120B7
:10047000FFF78AFFA1880022206800F067FA0120B8
:10048000FFF782FF06F00102A18DA06A00F05EFA7C
:10049000A18EC6F34002206B00F058FAA18FC6F37C
:1004A0008002A06B00F052FAB4F84410C6F3C00208
:1004B000206C00F04BFAA1880022206800F046FA78
:1004C0000120FFF761FFA1880122206800F03EFAB9
:1004D0000120FFF759FFA18854F80C09002200F011
:1004E00035FA0120FFF750FFBDE8F08170B50446F2
:1004F0000D4616462EB921890022606800F026FAC2
:1005000006E0012E04D121890122606800F01EFA64
:1005100005F00102218B606900F018FA218CC5F307
:100520004002E06900F012FA218DC5F38002606A92
:1005300000F00CFA218EC5F3C002E06A00F006FA62
:10054000218FC5F30012606B00F000FAB4F8401080
:10055000C5F34012E06B00F0F9F9B4F84810C5F3A8
:100560008012606C00F0F2F9EA09B4F85010E06C07
:1005700000F0ECF9218A0022E06800F0E7F90120A0
:10058000FFF702FF218A0122E06800F0DFF9012075
:10059000FFF7FAFE218A0022E06800F0D7F9012077
:1005A000FFF7F2FE70BD70B504460D4620781028A6
:1005B00005D1012229462046FFF798FF06E0207862
:1005C00020B9012229462046FFF712FF70BD70B501
:1005D00005460C4604E014F8011B2846FFF7E3FF2C
:1005E00020780028F7D170BD704710B5042000F0C6
:1005F000AFF810BD10B5082000F0AAF810BD10B576
:10060000102000F0A5F810BD10B5202000F0A0F8D3
:1006100010BD704770B5044600F09EF906462546A9
:10062000681C10B104480068054400BF00F094F94C
:10063000801BA842FAD370BD3000002010B50446DC
:10064000042C33D13548008818B90120334908807B
:1006500002E000203149088030480088012813D189
:1006600001F032FD00202E4908602E4908802E48F6
:1006700000882E4908802E4800882E4908802E4880
:1006800000882E4908800BE0284800882649088009
:10069000284800882649088028480088264908807C
:1006A000012027490880204826490860202C24D1B1
:1006B0001A48008808BB22480088032803D101207B
:1006C0001F49088004E01E480088401C1C4908801F
:1006D0001B480088012802D113481A4908601848AD
:1006E0000088022802D11248164908601448008880
:1006F000032802D1104813490860102C05D107487F
:10070000008810B9012010490880082C05D1034841
:10071000008810B901200D49088010BD1800002084
:10072000000000201A0000200C000020040000201F
:100730000E0000200600002010000020080000200D
:100740000A000020140000202400002022000020C5
:1007500010B5044604480068204020B102480460F7
:100760002046FFF76BFF10BD1404014078B5034627
:10077000002200240020CAE0012696400D6805EA08
:100780000604002C71D04D68022D02D04D68122D48
:1007900013D1D60803F1200555F826005507EE0EB3
:1007A0000F25B540A8435607F60E0D69B5402843FE
:1007B000D60803F1200545F82600186856000325E1
:1007C000B540A8430D7905F003055600B540284310
:1007D00018604D68012D08D04D68022D05D04D6878
:1007E000112D02D04D68122D13D1986856000325A3
:1007F000B540A8435600CD68B54028439860586876
:1008000001259540A8430D79C5F30015954028436F
:100810005860D86856000325B540A84356008D6837
:10082000B5402843D8604D6805F08055B5F1805F2C
:100830006CD100BF394D2D6845F00105374E35604C
:1008400035462D6805F00105009500BF00BF344D09
:10085000960855F8260095072E0F0F25B540A8439A
:10086000304DAB4202D1002515E04FE02E4DAB429A
:1008700001D101250FE02D4DAB4201D102250AE047
:100880002B4DAB4201D1032505E02A4DAB4201D1EE
:10089000042500E005259607360FB5402843204D76
:1008A000960845F82600244D2868A0434D6805F4B5
:1008B0008035B5F5803F00D120431F4D28602D1DA8
:1008C0002868A0434D6805F40035B5F5003F00D118
:1008D0002043194D2D1D28602D1D2868A0434D680B
:1008E00005F48015B5F5801F00D12043124D083561
:1008F00028602D1D2868A0434D6805F40015B5F546
:10090000001F00D120430C4D0C352860521C0D688F
:10091000D540002D7FF430AF78BD00002038024074
:1009200008000140000002400004024000080240AC
:10093000000C02400010024000040140024613690E
:100940000B400BB1012000E0002070470AB181612B
:1009500001E00B04836170470148006870470000A4
:100960002800002003480068034909680844014939
:1009700008607047280000203000002010B50024D7
:10098000032000F0B3F8002000F008F808B10124BB
:1009900001E000F02FF8204610BD000070B50446BD
:1009A000002511480068D8B10F4800684FF47A71EB
:1009B000B1FBF0F00D490968B1FBF0F6304600F0EC
:1009C00005FD58B9102C07D200222146501E00F018
:1009D0004FF80748046004E0012502E0012500E02B
:1009E0000125284670BD00003000002034000020A2
:1009F0002C00002008B500BF1448006840F00040FB
:100A0000124908600846006800F00040009000BFEE
:100A100000BF00BF081F006840F00100091F086008
:100A20000846006800F00100009000BF00BF00BF52
:100A3000081D006840F08050091D086008460068E5
:100A400000F08050009000BF00BF08BD2438024075
:100A500001460846002809DB00F01F0301229A40E6
:100A600043099B0003F1E023C3F8002100BF704756
:100A70002DE9F05F80460D461646002701F048FA42
:100A8000074639462A46334601F00700C0F1070AF7
:100A9000BAF1040F02D94FF0040A01E0C0F1070ACD
:100AA000D14600F1040ABAF1070F02D24FF0000A52
:100AB00001E0A0F1030AD4464FF0010A0AFA09FA4C
:100AC000AAF1010A0AEA020A0AFA0CFA4FF0010B2B
:100AD0000BFA0CFBABF1010B0BEA030B4AEA0B041C
:100AE0002146404601F01CFABDE8F09F00BF00F02F
:100AF0000702064B19684FF6FF031940044B0B43DE
:100B000043EA0221014B196000BF70470CED00E081
:100B10000000FA052DE9F04104460D4614B9012004
:100B2000BDE8F0817E48006800F00100A84218D2BC
:100B300000BF012D05D17A48006840F004007849D3
:100B400008607748006820F0010028437449086075
:100B500000BF0846006800F00100A84201D0012053
:100B6000DEE7207800F00200022807D16D48006817
:100B700020F0F000A16808436A490860207800F07E
:100B8000010000287FD06068022807D16548083836
:100B9000006800F40030F8B90120C1E7606803285C
:100BA00007D160480838006800F00070A0B9012043
:100BB000B6E76068012807D15A480838006800F095
:100BC000020048B90120ABE756480838006800F435
:100BD000007008B90120A3E75248006820F0030024
:100BE000616808434F490860FFF7B6FE0646606833
:100BF000022810D108E0FFF7AFFE801B41F28831D8
:100C0000884201D903208BE74648006800F00C00B9
:100C10000828F0D137E06068032810D108E0FFF71A
:100C20009BFE801B41F28831884201D9032077E77F
:100C30003C48006800F00C000C28F0D123E060680C
:100C4000012810D108E0FFF787FE801B41F28831B0
:100C5000884201D9032063E73248006800F00C00A5
:100C60000428F0D10FE008E0FFF776FE801B41F288
:100C70008831884201D9032052E72A48006800F0F1
:100C80000C000028F0D12648006800F00100A842BE
:100C900018D900BF012D05D12148006840F004009B
:100CA0001F4908601E48006820F0010028431C49C5
:100CB000086000BF0846006800F00100A84201D0AB
:100CC00001202DE7207800F00400042807D1154802
:100CD000006820F4E060E168084312490860207869
:100CE00000F00800082808D10E48006820F4605081
:100CF000216940EAC1000B49086000F01BF809496E
:100D00000968C1F30311084A515CC84007490860EB
:100D100007480068FFF742FE0746384600E7000034
:100D2000003C024008380240ED2300083400002057
:100D30002C000020F0B51A4E316801F00C0616B3F5
:100D4000042E04D0082E04D00C2E1BD103E015482D
:100D500023E0154821E0154EC1F38347F25DC1F34E
:100D60008156731C0E4E366806F4803626B10E4E40
:100D70005643B6FBF3F403E00A4E5643B6FBF3F4D6
:100D800020460AE000BF064E361F3668C6F34235DD
:100D90006E1C0127B740F80300BF00BFF0BD000084
:100DA000083802400024F40000366E01E4230008F5
:100DB0002DE9F843044614B90120BDE8F883FE4844
:100DC000006800F00C06FC48006800F480372078CA
:100DD00000F00100002875D0082E04D00C2E0ED192
:100DE000B7F5803F0BD1F4480838006800F40030B4
:100DF000002867D06068002864D10120DDE700BFCB
:100E00006068012808D1EC480838006840F4803058
:100E1000E949083908602DE0606868B9E648083893
:100E2000006820F48030E44908390860084600680A
:100E300020F4802008601DE0606805280DD1DE48A0
:100E40000838006840F48020DB490839086008460B
:100E5000006840F4803008600CE0D748083800682B
:100E600020F48030D449083908600846006820F42E
:100E70008020086000BF606890B1FFF76DFD0546F7
:100E800006E0FFF769FD401B642801D9032094E7C1
:100E9000C9480838006800F400300028F1D011E09B
:100EA000FFF75AFD054606E0FFF756FD401B642894
:100EB00001D9032081E7C0480838006800F40030F9
:100EC0000028F1D1207800F00200022853D1042E2E
:100ED00002D00C2E17D1B7B9B7480838006800F017
:100EE000020020B1E068012801D0012065E7B24886
:100EF000001F006820F4F850216940EA0120AE4943
:100F0000091F086037E0E06800B30120AB490860C2
:100F1000FFF722FD054606E0FFF71EFD401B0228F5
:100F200001D9032049E7A4480838006800F002000E
:100F30000028F1D0A048001F006820F4F850216973
:100F400040EA01209C49091F086014E000209B49E9
:100F50000860FFF701FD054606E0FFF7FDFC401BBA
:100F6000022801D9032028E793480838006800F0D8
:100F700002000028F1D1207800F01000102871D173
:100F8000F6BB8D480838006800F4007018B1A069FD
:100F900008B9012011E78849091F206A096801F48E
:100FA0006041884219D9206A00F01CFE08B1012076
:100FB00003E78148001F006820F46040216A08436D
:100FC0007D49091F0860217F7B48001F006861F38D
:100FD0001F607949091F08601AE07748001F006800
:100FE00020F46040216A08437349091F0860217F8B
:100FF0007148001F006861F31F606F49091F00E01E
:1010000020E00860206A00F0EDFD08B10120D4E680
:101010000121206A01EB503101208840C00366495C
:101020000968C1F30311664A515CC840654908600C
:1010300065480068FFF7B2FC8046B8F1000F42D067
:101040004046BAE6A06948B301205C490862FFF750
:1010500083FC054607E0FFF77FFC401B022802D90E
:101060000320AAE62FE054480838006800F4007016
:101070000028F0D05048001F006820F46040216A2A
:1010800008434D49091F0860217F4B48001F006835
:1010900061F31F604849091F086014E000204749B8
:1010A0000862FFF759FC054606E0FFF755FC401BB8
:1010B000022801D9032080E63F480838006800F480
:1010C00000700028F1D1207800F0080008282CD109
:1010D0006069A8B101203D490860FFF73DFC054665
:1010E00006E0FFF739FC401B022801D9032064E623
:1010F00031482C30006800F002000028F1D014E0E4
:10110000002032490860FFF727FC054606E0FFF79C
:1011100023FC401B022801D903204EE626482C3030
:10112000006800F002000028F1D1207800F00400EF
:1011300004286ED14FF000091F481C30006800F0F1
:10114000805088B900BF1C481C30006840F08050B7
:1011500019491C3108600846006800F08050009072
:1011600000BF00BF4FF001091948006800F480700B
:10117000B0B91748006840F4807015490860FFF75F
:10118000EBFB054606E0FFF7E7FB401B642801D9AF
:10119000032012E60E48006800F480700028F2D0A8
:1011A00000BFA068012817D103482C30006840F424
:1011B000807001492C310DE00838024000004742A0
:1011C000ED230008340000202C0000208006474258
:1011D00000700040086028E0A06858B966480068C0
:1011E00020F48070644908600846006820F480603C
:1011F00008601AE0A06805280CD15F48006840F438
:1012000080605D4908600846006840F480700860AE
:101210000BE040E05848006820F4807056490860B0
:101220000846006820F48060086000BFA06898B19C
:10123000FFF792FB054608E0FFF78EFB401B41F2EB
:101240008831884201D90320B7E54B48006800F493
:1012500000700028F0D012E0FFF77EFB054608E0A2
:10126000FFF77AFB401B41F28831884201D9032005
:10127000A3E54148006800F400700028F0D1B9F1FE
:10128000010F07D13C481038006820F080503A49DF
:101290001039086000BF606AA8B30C2E52D0606A93
:1012A000022839D1002035490866FFF755FB05466D
:1012B00006E0FFF751FB401B022801D903207CE523
:1012C0002D483438006800F000700028F1D1D4E9CE
:1012D0000A010843216B084327492C39096821F486
:1012E0007D01084324492C39086001202349086600
:1012F000FFF732FB054607E0FFF72EFB401B0228F5
:1013000002D9032059E535E01B483438006800F065
:1013100000700028F0D02DE0002018490866FFF783
:101320001BFB054606E0FFF717FB401B022801D90F
:10133000032042E510483438006800F000700028AF
:10134000F1D117E0606A012800D136E50A482C384F
:10135000076807F48031A06A814209D107F470114F
:10136000E06A814204D107F44001206B814201D040
:10137000012022E5002020E53438024000004742E9
:101380000E480088012803D00D480088012805D1A7
:101390000C480088401C0B49088004E000200949E3
:1013A00008800949088007480088B0F5FA7F04DD05
:1013B00005480088401C0449088070473800002018
:1013C0003A0000203E0000203C00002070B504469A
:1013D0002546681EB0F1807F01D301200FE0681E12
:1013E0004FF0E02148610F214FF0FF3000F098FDF1
:1013F00000204FF0E021886107200861002070BDC7
:1014000010B5FFF7BDFF10BD10B5024600BF92F842
:101410003800012801D1022010BD012082F83800D7
:1014200000BF022082F839001068436810688468A1
:1014300023F070030868034324F0800448680443E1
:101440001068436010688460012082F8390000BF92
:10145000002082F8380000BF00BFDDE710B5044669
:101460000CB9012010BD94F8390028B9002084F887
:101470003800204600F00CF8022084F83900211DC5
:10148000206800F0ABFC012084F839000020E9E777
:1014900038B504462068B0F1804F15D100BF0B4825
:1014A000006840F00100094908600846006800F043
:1014B0000100009000BF00BF002211461C20FFF772
:1014C000D7FA1C20FFF7C4FA38BD000024380240C8
:1014D00001460868C06840F001000B68D8600868E1
:1014E000806800F00702062A05D00868006840F00E
:1014F00001000B681860002070472DE9F041044698
:101500000D4600BF94F83800012802D10220BDE842
:10151000F081012084F8380000BF022084F83900EF
:101520002068866826F0770626F47F462068866065
:101530002868502833D00CDC202850D004DC002848
:101540004BD0102851D149E0302849D040284CD107
:1015500039E060282DD0702807D0B0F5805F03D027
:10156000B0F5005F41D10DE040E0D5E902136A68B3
:10157000206800F07BFC2068866846F077062068CB
:10158000866033E0D5E902136A68206800F06EFCDB
:101590002068806840F480402168886026E0EA681E
:1015A0006968206800F076FC5021206800F069FC32
:1015B0001CE0EA686968206800F07FFC6021206810
:1015C00000F05FFC12E0EA686968206800F062FCE5
:1015D0004021206800F055FC08E000BF00BF00BFBC
:1015E0002968206800F04DFC00E000BF00BF01202A
:1015F00084F8390000BF002084F8380000BF00BF25
:1016000085E7704710B5044620680069C0F34000C4
:10161000D8B12068C068C0F34000B0B16FF00200DC
:1016200021680861012020762068806900F00300AD
:1016300018B12046FFF7E5FF05E0204600F08BF8E3
:10164000204600F089F80020207620680069C0F369
:101650008000D8B12068C068C0F38000B0B16FF0DE
:10166000040021680861022020762068806900F467
:10167000407018B12046FFF7C4FF05E0204600F097
:101680006AF8204600F068F800202076206800699B
:10169000C0F3C000D8B12068C068C0F3C000B0B1CA
:1016A0006FF0080021680861042020762068C06976
:1016B00000F0030018B12046FFF7A3FF05E0204625
:1016C00000F049F8204600F047F800202076206816
:1016D0000069C0F30010D8B12068C068C0F30010E2
:1016E000B0B16FF0100021680861082020762068F2
:1016F000C06900F4407018B12046FFF782FF05E092
:10170000204600F028F8204600F026F80020207639
:101710002068006900F0010058B12068C06800F03E
:10172000010030B16FF0010021680861204600F02F
:1017300015F820680069C0F3801058B12068C068AF
:10174000C0F3801030B16FF040002168086120467E
:1017500000F00CF810BD704770470000024909689E
:10176000491C014A1160704700000020704700BF0B
:10177000FEE70000FEB507460C4616461D46002251
:1017800011463846FEF706FE23A13846FEF71FFF36
:101790000A2C05DA224623A102A800F0A5FB04E0EA
:1017A000224622A102A800F09FFB00220821384611
:1017B000FEF7F0FD02A93846FEF709FF0A2E05DA0A
:1017C000324618A101A800F08FFB04E0324617A1B1
:1017D00001A800F089FB00220B213846FEF7DAFD54
:1017E00001A93846FEF7F3FE0A2D05DA2A4610A1B4
:1017F000684600F079FB04E02A460EA1684600F036
:1018000073FB00220E213846FEF7C4FD69463846B8
:10181000FEF7DDFEFEBD000052756E6E696E67203C
:10182000000000003025643A0000000025643A0002
:101830003025640025640000F0B585B007460C46ED
:1018400015461E462B46224607A101A8009600F029
:101850004BFB012200213846FEF79CFD01A93846CA
:10186000FEF7B5FE05B0F0BD54313A256420543280
:101870003A25642054333A2564202020202000009B
:101880002DE9FE4380460C4616461D460A9F00225F
:1018900011464046FEF77EFD012F04D129A14046A6
:1018A000FEF795FE0AE0022F04D128A14046FEF77C
:1018B0008EFE03E027A14046FEF789FE0A2C05DADA
:1018C000224626A102A800F00FFB04E0224625A133
:1018D00002A800F009FB002208214046FEF75AFD4D
:1018E00002A94046FEF773FE0A2E05DA32461BA116
:1018F00001A800F0F9FA04E032461AA101A800F0AC
:10190000F3FA00220B214046FEF744FD01A94046B0
:10191000FEF75DFE0A2D05DA2A4613A1684600F09F
:10192000E3FA04E02A4611A1684600F0DDFA00223D
:101930000E214046FEF72EFD69464046FEF747FE63
:10194000BDE8FE835345545F543120005345545F36
:10195000543220005345545F543320003025643AFC
:101960000000000025643A00302564002564000072
:101970007FB506460D461446012C05D12A460EA118
:10198000684600F0B1FA06E0022C04D12A460FA105
:10199000684600F0A9FA032C04D12A4610A1684633
:1019A00000F0A2FA012200213046FEF7F3FC69465E
:1019B0003046FEF70CFE7FBD54313A25642047695E
:1019C00061792020202020202000000054323A2578
:1019D0006420506875742020202020202000000002
:1019E00054333A2564204769617920202020202043
:1019F0002000000000B587B0142102A8FEF7B5FB57
:101A000000BF5548006840F004005349086008468C
:101A1000006800F00400019000BF00BF00BF08464E
:101A2000006840F0010008600846006800F001000E
:101A3000019000BF00BF00BF0846006840F00200F0
:101A400008600846006800F00200019000BF00BF77
:101A500000BF0846006840F00800086008460068BB
:101A600000F00800019000BF00BF002243F2CF1138
:101A70003A48FEF76BFF002248F603013848FEF7AC
:101A800065FF00224FF450413648FEF75FFF43F2F6
:101A9000CF1002900120039000200490059002A92D
:101AA0002E48FEF763FE48F60300029001200390E3
:101AB00000200490059002A92948FEF757FE4FF434
:101AC000504002900120039000200490059002A94C
:101AD0002448FEF74BFE0420029023480390012087
:101AE000049002A92148FEF741FE202002901E48E2
:101AF00003900120049002A91A48FEF737FE18202F
:101B00000290194803900120049002A91548FEF79D
:101B10002DFE002201210820FEF7AAFF0820FEF773
:101B200097FF022201210920FEF7A2FF0920FEF7FC
:101B30008FFF022201210A20FEF79AFF0A20FEF7FA
:101B400087FF012211461720FEF792FF1720FEF7AC
:101B50007FFF07B000BD00001C38024000080240B3
:101B6000000002400004024000002110000C02406E
:101B700000B587B000200390049005900690019076
:101B800002904FF08040144908604FF47A5048604A
:101B90000021114881604FF47A71C1600021016118
:101BA0004161FFF75BFC08B1FEF733FD4FF4805055
:101BB000039003A90848FFF7A0FC08B1FEF729FD30
:101BC00000200190029001A90348FFF71DFC08B115
:101BD000FEF71FFD07B000BD4000002000BFFEE77C
:101BE0007047704718B5034600222548006800F08A
:101BF000F00050BB22481C30006800F0805020B13B
:101C00002048006800F4C05118E000BF1C481C3098
:101C1000006840F080501A4C1C3420602046006858
:101C200000F08050009000BF00BF1648006800F42C
:101C3000C0512046006820F080502060B1F5C05FA0
:101C400003D1B3F5404F00D1012200BF012A05D1D5
:101C50000D48006840F004000B4C20600A48006802
:101C600020F001001043084C206000BF20460068AF
:101C700000F00100904201D0012018BD0020FCE7D7
:101C80000838024000700040003C02402DE9F04757
:101C900006460F4614461D46DDE9088900223946EE
:101CA0003046FEF753FE002229462046FEF74EFE40
:101CB000002249464046FEF749FEBDE8F0877047DE
:101CC0002DE9F04706460F4614461D46DDE9088912
:101CD000012239463046FEF739FE012229462046C8
:101CE000FEF734FE012249464046FEF72FFEBDE8CE
:101CF000F08710B5FEF736FEFFF782FB10BD00003F
:101D000000B593B0342106A8FEF72FFA142101A8DC
:101D1000FEF72BFA1348006820F4C05040F400602E
:101D200010490860022006900120099010200A90B6
:101D300000200F9006A8FFF73BF808B1FEF769FCFA
:101D40000F20019001200290002003900490059044
:101D5000002101A8FEF7DEFE08B1FEF75AFC13B021
:101D600000BD0000007000401448006840F480701E
:101D700012490860114808300068114908400F49AD
:101D8000083108600D4800680E4908400B4908609A
:101D90000846006820F48020086008480830006881
:101DA00020F47D000549083108600020091D086005
:101DB0004FF000600449086070470000003802409E
:101DC0000CC0FF88FEFFFEEE08ED00E010B50248F3
:101DD000FFF718FC10BD00004000002010B502689D
:101DE000B0F1804F0BD01B4B984208D01A4B984251
:101DF00005D01A4B984202D0194B984203D122F0D9
:101E000070024B681A43B0F1804F11D0114B9842C9
:101E10000ED0114B98420BD0104B984208D0104B6B
:101E2000984205D00F4B984202D00F4B984203D1F5
:101E300022F44072CB681A4322F080030C6943EA13
:101E4000040202608B68C3620B68836201234361F2
:101E500010BD00000004004000080040000C0040DD
:101E600000080140000C01400010014030B50C4654
:101E7000816821F47F4142EA03252543294381609B
:101E800030BD0A46816821F0700142F00703194312
:101E90008160704730B50B461446026A056A25F02A
:101EA00001050562816921F0F00141EA041122F087
:101EB0000A021A438161026230BD30B50B461446F6
:101EC000056A25F0100505628169026A21F47041F6
:101ED00041EA043122F0A00242EA03128161026267
:101EE00030BD00BFFEE700000FB4084B10B504A9D9
:101EF00002AA039800F038F8044602A9002000F076
:101F0000DDF8204610BC5DF814FB0000BD20000881
:101F100002480068C0F30220704700000CED00E0AA
:101F200010B5002804DB0A07130E054A135406E017
:101F30000A07140E034A00F00F031B1FD45410BDF0
:101F400000E400E018ED00E002E008C8121F08C13C
:101F5000002AFAD170477047002001E001C1121F2A
:101F6000002AFBD1704700002DE9FF4F89B09B4646
:101F70000446002506E025280BD05A460B999047C9
:101F8000641C6D1C20780028F5D10DB02846BDE8F2
:101F9000F08F0027B8460122474900E0074314F8B4
:101FA000013F203B02FA03F00842F7D120782E28A7
:101FB00019D114F8010F47F004072A280ED06FF04A
:101FC0002F022078A0F1300109290CD808EB8801F4
:101FD00002EB410100EB0108641CF2E70A98641C63
:101FE00050F8048B0A9020780028CED0642808D0BE
:101FF000692806D075281ED05A460B9990476D1C4B
:1020000058E00A994FF00A0901C90A91002802DA3A
:1020100040422D2102E0390504D52B218DF82010F6
:10202000012103E0F90704D02021F7E78A4608AE32
:102030000DE00021FAE70A994FF00A0901C90A9157
:10204000F7E74946FEF79CF8303106F8011D0028F5
:10205000F7D1ADEB060000F12009780701D44FF06D
:102060000108C84502DDA8EB090000E00020804619
:10207000002706E008A85A46C05D0B9990476D1CE2
:102080007F1C5745F6DB04E030205A460B999047F9
:102090006D1CB8F10001A8F10108F5DC05E016F8A7
:1020A000010B5A460B9990476D1CB9F10001A9F13B
:1020B0000109F4DC641C65E7092801000A68531C67
:1020C0000B601070704700001CB50E480088C0B946
:1020D00001200D4908230A46CDE9001004210A48D1
:1020E000FFF7D4FD022008490346084ACDE9001055
:1020F00001211046FFF7CAFD002005490880054967
:1021000008601CBD180000200008024000000240CA
:102110001A000020000000208CB0FEF72FFCFFF713
:10212000EFFDFFF767FCFFF723FD3A48FFF7D0F913
:102130004FF4805038498200CDE90712CDE90910EB
:10214000C0004022354BCDE90332CDE90510802097
:102150004200CDE900230290022210213048FEF710
:10216000A1F808E0002203212D48FEF713F92DA164
:102170002B48FEF72CFA2E4800880128F2D047E0C1
:102180002C4A2D492D4800F0F3F800F067F8284854
:102190000088012812D12748038827480288274849
:1021A00001881F48FFF7E6FA25480388254802887A
:1021B000254801881A48FFF73FFB29E023480168BA
:1021C0002348FEF711F8214801682248FEF700F87D
:1021D0001E48082102681048FEF73AF81B481021F3
:1021E00002680D48FEF70AF81B4800880090114865
:1021F000038811480288114801880948FFF740FB0D
:10220000124800680188144802880548FFF7B0FBAF
:10221000B6E7000040000020000402400008024031
:102220007C0000204E68616E20454E5445520000EF
:1022300018000020200000201E0000201C000020AC
:1022400008000020060000200400002014000020E8
:1022500022000020240000200A0000201CB53D4878
:10226000008888B901203C4908230A46CDE90010BE
:1022700004213948FFF724FD36480088401C3549C1
:10228000088000203549086032480088012815D1AF
:1022900032480068022811D302202F490346304AF1
:1022A000CDE9001001211046FFF70AFD29480088FA
:1022B000401C2849088000202849086025480088DB
:1022C000022817D12548006826490988884211D379
:1022D000022021490346224ACDE90010012110467F
:1022E000FFF7D4FC1B480088401C1A4908800020D6
:1022F0001A49086017480088032817D11748006852
:1023000019490988884211D30120134908230A4634
:10231000CDE9001004211048FFF7B8FC0D480088F3
:10232000401C0C49088000200C49086009480088BE
:1023300004280DD10D480088C0EB0010800007492B
:102340000968884204D800200449086001490880CF
:102350001CBD00001A000020000802400000002000
:1023600000000240040000200800002006000020B9
:10237000F0B53C233C24194D194E36684FF4616783
:10238000B6FBF7F606800688C6EB0616B600C6EB67
:102390000616134F3F68A7EB86063C27B6FBF7F6F9
:1023A0000E800688C6EB0616B600C6EB06160C4F66
:1023B0003F88A7EB86060F88C7EB0717A6EB8706B3
:1023C0001680074E36686F1EBE4205D30026044FA6
:1023D0003E6006800E801680F0BD00008051010036
:1023E00000000020030406080C1018203000000034
:1023F00000000000000102030406070809000000B5
:10240000000102030400000028240008000000204E
:1024100040000000481F0008682400084000002019
:1024200098040000581F000800000000010001008F
:10243000010001000000000000000000000000009A
:10244000010000000000000000000000000000008B
:1024500000000000100000000100000068FF1F00E5
:08246000000000000000000074
:0400000508000125C9
:00000001FF
