:020000040800F2
:100000000805002039010008BB150008EB110008A5
:10001000B9150008D10100086B18000800000000A5
:100020000000000000000000000000004116000871
:10003000D104000800000000BD15000845160008A6
:100040005301000853010008530100085301000840
:100050005301000853010008530100085301000830
:10006000D3040008D9040008DF0400085301000885
:100070005301000853010008530100085301000810
:100080005301000853010008530100085301000800
:10009000530100085301000853010008E50400085B
:1000A000000000005301000853010008530100083C
:1000B000711700085301000853010008530100089C
:1000C00053010008530100085301000853010008C0
:1000D00053010008530100085301000853010008B0
:1000E00053010008530100085301000853010008A0
:1000F00053010008000000005301000853010008EC
:100100000000000000000000530100085301000837
:1001100053010008530100085301000800000000CB
:1001200053010008DFF80CD000F040F80048004709
:10013000811A000808050020064880470648004745
:10014000FEE7FEE7FEE7FEE7FEE7FEE7FEE7FEE787
:10015000FEE7FEE72117000825010008D2B201E002
:1001600000F8012B491EFBD270470022F6E710B5BC
:1001700013460A4604461946FFF7F0FF204610BD15
:1001800030B50B46014600202022012409E021FA67
:1001900002F59D4205D303FA02F5491B04FA02F564
:1001A0002844151EA2F10102F1DC30BD064C074DBA
:1001B00006E0E06840F0010394E807009847103437
:1001C000AC42F6D3FFF7B2FF541D0008741D0008BF
:1001D000FEE72DE9F05F0446DDE91090DDE90C65EE
:1001E000DDE90AC7DDE90EEB4FF00008DDF84CA0B1
:1001F00084F800806170A2706360A4F808C0E760B2
:1002000026826563A4F838E0C4F83CB0A4F84090B6
:1002100060641298A4F84800C4F84CA01498A4F89C
:100220005000282084F85500062084F852000C2045
:1002300084F85300142084F85400322000F056F95A
:1002400000223321204600F05BF8052000F04EF933
:1002500000223321204600F053F8052000F046F933
:1002600000223221204600F04BF8052000F03EF934
:1002700094F852100022204600F042F894F85310EF
:100280000022204600F03CF894F85410002220464A
:1002900000F036F894F855100022204600F030F8AF
:1002A00000220121204600F02BF82046BDE8F05F37
:1002B0000022022100F024B808B510A31B680093A7
:1002C00043788B4201D85B1ED9B28378934201D820
:1002D0005B1EDAB21DF8022011440278C9B2102A5E
:1002E00006D0002A03D141F0800100F009F808BDD2
:1002F00041F08001002200F078F808BD004014545D
:1003000070B504460E090D4612B1012A04D008E06A
:1003100021890022606802E021890122606800F0E2
:1003200024FA218F606B06F001020C3400F01DFAF4
:10033000A18EC6F34002206B00F017FAA18FC6F31E
:100340008002A06B00F011FAB4F84410F208206C9F
:1003500000F00BFAA1880022206800F006FA0120C4
:1003600000F0C4F8A1880122206800F0FEF9012005
:1003700000F0BCF8A1880022206800F0F6F9012006
:1003800000F0B4F805F00102A18DA06A00F0EDF9CB
:10039000A18EC5F34002206B00F0E7F9A18FC5F3F1
:1003A0008002A06B00F0E1F9B4F84410C5F3C0027C
:1003B000206C00F0DAF9A1880022206800F0D5F95D
:1003C000012000F093F8A1880122206800F0CDF907
:1003D000012000F08BF8A1880022206800F0C5F908
:1003E000BDE87040012000F081B870B50D460446AC
:1003F00012B1012A04D008E021890022606802E0DD
:1004000021890122606800F0B0F9218B606905F054
:1004100001020C3400F0A9F9A18AC5F34002206959
:1004200000F0A3F9A18BC5F38002A06900F09DF94B
:10043000A18CC5F3C002206A00F097F9A18DC5F325
:100440000012A06A00F091F9A18EC5F34012206B52
:1004500000F08BF9A18FC5F38012A06B00F085F935
:10046000EA09B4F84410206C00F07FF9A18800225A
:10047000206800F07AF9012000F038F8A188012204
:10048000206800F072F9012000F030F8A188002205
:10049000206800F06AF9BDE87040012000F026B83D
:1004A0000278102A04D0002A05D10122FFF728BFC4
:1004B0000122FFF79ABF704770B50C46054603E06E
:1004C0002846641CFFF7ECFF21780029F8D170BDA5
:1004D0007047042000F072B8082000F06FB81020B8
:1004E00000F06CB8202000F069B8000070B5044638
:1004F00000F040F90546601C02D0044840680444FE
:1005000000F038F9401BA042FAD370BD540000201F
:100510002DE9F041274C014600250126606B042996
:100520000DD0202926D0244F102927D0082912D1F8
:10053000002810D1384600F013F968B32EE060B1FE
:1005400065636068A062A068E062E06820631948A3
:1005500066612830A063BDE8F081666301F06AFA45
:10056000A56125602561A06A6060E06AA060206BDB
:10057000E060ECE70028EED16662ECE70028EAD103
:100580001021384600F0ECF808B926626664606B0A
:100590000028E0D1102105E0E6616664606B002868
:1005A000D9D10821384600F0DBF80128D3D16564A1
:1005B000E563D0E70000002000040240044910B5C4
:1005C0000A68024202D00860FFF7A2FF10BD0000D7
:1005D000140401402DE9F84FDFF864B100234FF017
:1005E000010C4FF0030A4FF00F090BF1040EA0E0CD
:1005F0000CFA03F6324072D04C68022C01D0122C57
:100600000ED1DC0800EB8408D8F820405D07EF0E1F
:1006100009FA07F5AC430D69BD402543C8F82050E1
:1006200007685D0091F804800AFA05F408F00308F1
:10063000A74308FA05F848EA0708C0F800804F68A1
:10064000012F05D0022F03D0112F01D0122F11D16D
:100650008768D1F80C80A74308FA05F848EA07082C
:10066000C0F808804768B7430E79C6F300169E406D
:100670003E434660C668A6438C68AC403443C460C1
:100680004C68E40054D52F4C256845F001052560E1
:10069000246823F0030504F0010400942A4C254447
:1006A000AF689C07240F09FA04F6B743274EB042FF
:1006B00001D1002615E0264EB04201D1012610E0FE
:1006C000244EB04201D102260BE0234EB04201D1AC
:1006D000032606E0214EB04202D1042601E027E0C5
:1006E0000526A6403E43AE60DBF800405D464E68FE
:1006F0009443F60300D514432C60DEF800407546A1
:100700004E689443B60300D514432C600C4D083555
:100710002C684E689443F60200D514432C60084DB3
:100720000C352C684E689443B60200D514432C60F7
:100730005B1C0A6832FA03F47FF45AAFBDE8F88F05
:100740000004014020380240000001400000024047
:100750000004024000080240000C02400010024069
:100760000069084000D0012070470AB181617047DC
:100770000904FBE70148806870470000540000202E
:10078000024881684268114481607047540000202B
:1007900010B50024032000F079F8002000F008F8DC
:1007A00008B1012401E000F025F8204610BD00004A
:1007B00070B50E4E05460024706898B14FF47A71FA
:1007C000B1FBF0F00A490968B1FBF0F000F086FBDC
:1007D00040B9102D06D200222946501E00F036F8EE
:1007E000356000E00124204670BD00005400002068
:1007F000600000200D4808B5016841F0004101602B
:10080000016801F000410091011F0A6842F00102F5
:100810000A60096801F001010091016841F080510E
:100820000160006800F08050009008BD243802404C
:10083000002809DB00F01F020121914040098000DF
:1008400000F1E020C0F8001170470000F0B40E4B3A
:100850001B680C46C3F30223C3F10705042D00D91E
:100860000425191D072901D2002300E0DB1E012603
:1008700006FA05F1491E214099409E40761E164019
:100880003143F0BC01F006B80CED00E0064900F081
:10089000070208684FF6FF03184040EA0220034AA7
:1008A00010430860704700000CED00E00000FA05FE
:1008B0002DE9F0470E46050079D0DFF88481D8F89D
:1008C000000000F00100B04214D2012E05D1D8F88A
:1008D000001041F00401C8F80010D8F8001021F011
:1008E00001013143C8F80010D8F8000000F0010001
:1008F000B0425CD12878534C800705D52068A968A0
:1009000020F0F000084320602878C0075CD04D49F3
:100910006868083902281AD003281BD00968012802
:100920001BD08905002966DA216821F00301014303
:100930002160FFF71FFF6968074641F288300229EE
:1009400014D0032920D0012981462AD038E0096833
:100950008903E7E709688901E4E78907E2E700BF5F
:10096000FFF708FFC11B494501D926E081462068F1
:10097000C0F381000228F3D126E000BFFFF7FAFEA2
:10098000C11B494501D918E081462068C0F38100A8
:100990000328F3D118E000BFFFF7ECFEC11B494567
:1009A0000BD82068C0F381000128F5D10CE022E0CB
:1009B000FFF7E0FEC11B494502D90320BDE8F087DF
:1009C000206810F00C0FF3D1D8F80010404601F069
:1009D0000101B14211D9012E03D1016841F0040196
:1009E0000160016821F0010131430160006800F0FD
:1009F0000100B04201D00120E0E72878400705D58A
:100A00002068E96820F4E060084320602878000747
:100A100006D52068296920F4605040EAC1002060B2
:100A200000F018F82168084AC1F30311515CC8406E
:100A30000649086006480068BDE8F047FFF7B8BE01
:100A4000003C024008380240411D000860000020C0
:100A500054000020134A116801F00C0004280CD047
:100A600008280CD00C280CD0101F0068C0F34231AD
:100A70004FF40040491C884070470B4870470B48B2
:100A800070470B48C1F383431268C05CC1F38151C6
:100A9000491CD20301D5054A00E0034A5043B0FB8C
:100AA000F1F07047083802400024F40000366E016F
:100AB000381D00082DE9F84F04007DD0FC4801687E
:100AC000006801F00C0700F480362078F94DC0076B
:100AD00041D0082F12D00C2F02D1B6F5803F0DD097
:100AE0006068012811D008B1052818D0286820F4C2
:100AF00080302860286820F4802009E0286880037E
:100B000029D560680028D8D025E0286840F48030D6
:100B10002860606890B1FFF72DFE80460AE02868E3
:100B200040F480202860F0E7FFF724FEA0EB0800E7
:100B300064287BD828688003F6D50CE0FFF71AFEFE
:100B4000804605E0FFF716FEA0EB08006428F0D809
:100B500028688003F6D42078DFF85CB3DFF85C8384
:100B600080074FF001094FF0000A35D5042F0AD055
:100B70000C2F00D13EB1E068F8B1C8F80090FFF743
:100B8000F9FD06460BE0286880070BD5E0680128D0
:100B900012D107E0FFF7EEFD801B0228C9D82868B4
:100BA0008007F7D5DBF80010226921F4F85141EAFB
:100BB0000221CBF800100FE077E1C8F800A0FFF7A2
:100BC000D9FD064605E000BFFFF7D4FD801B0228D3
:100BD000AFD828688007F7D42078C00674D53FB115
:100BE000A069E0B3C8F82090FFF7C4FD06464AE0CC
:100BF0002868800502D5A069002884D0206ADBF827
:100C000000105E4601F46041884210D900F0D8FC23
:100C10000028BDD13068216A20F46040084330606C
:100C2000217F306861F31F6030600FE096E031682B
:100C300021F4604101433160217F306861F31F601E
:100C40003060206A00F0BCFC0028A1D1216A4FF47A
:100C5000004009EB513188409549096800E025E0E2
:100C6000974AC1F30311515CC84096490860964801
:100C70000068FFF79DFD00286FD125E0FFF77AFDA2
:100C8000801B02286AD828688005F7D5DBF8001099
:100C9000226A21F460411143CBF80010227FDBF877
:100CA000001062F31F61CBF800100DE0C8F820A01F
:100CB000FFF760FD064604E0FFF75CFD801B02289D
:100CC0004CD828688005F7D42078804E000722D5BC
:100CD0007F48616981B1C0F80090FFF74BFD834602
:100CE00006E000BFFFF746FDA0EB0B00022835D859
:100CF00030688007F6D50EE0C0F800A0FFF73AFD97
:100D0000834605E0FFF736FDA0EB0B00022825D84F
:100D100030688007F6D4207840076DD56B484FF0D7
:100D2000000B10380068C0000BD468481038016808
:100D300041F08051016000684FF0010B00F08050DD
:100D4000009064480168C90514D4016841F48071B9
:100D50000160FFF70FFD009008E08DE079E000BF33
:100D6000FFF708FD0099401A642872D859480068B6
:100D7000C005F5D5A06801280AD008B1052811D012
:100D8000306820F480703060306820F4806002E0C9
:100D9000306840F480703060A068A8B1FFF7EAFCCA
:100DA00000900DE0306840F480603060F0E700BFF4
:100DB000FFF7E0FC0099411A41F2883081425AD88D
:100DC00030688005F4D50EE0FFF7D4FC009007E012
:100DD000FFF7D0FC0099411A41F2883081424AD88D
:100DE00030688005F4D4BBF1000F05D037481038C7
:100DF000016821F080510160606A58B30C2F41D026
:100E00000228504605D0C8F86000FFF7B3FC04463E
:100E100034E04746C8F86000FFF7ACFC064604E043
:100E2000FFF7A8FC801B022825D828688001F7D48A
:100E3000D4E90A1001431E48226B036823F47D03A2
:100E40001A4311430160C7F86090FFF793FC044612
:100E500007E010E040E000BFFFF78CFC001B022819
:100E600009D828688001F7D536E000BFFFF782FC7B
:100E7000001B022802D90320BDE8F88F28688001F2
:100E8000F4D429E00128F7D009480068A26A00F4E8
:100E90008031914209D1E26A00F47011914204D18B
:100EA000216B00F44000884216D00120E4E70000E6
:100EB000083802400038024004380240000047422F
:100EC000411D00086000002054000020343802401A
:100ED00080064742007000400020CDE710B5401E5C
:100EE000B0F1807F01D3012010BD4FF0E02460619C
:100EF0000F21601700F0CEFC0020A06107202061C8
:100F0000002010BD70B590F83820012A19D00124B6
:100F100000F8384F0222427050F8383C5A689D68F9
:100F200022F070060A684968324325F0800529439B
:100F30005A6050F8382C91604470002101700846C6
:100F400070BD022070BD10B5040003D094F83900C4
:100F500010B107E0012010BD002084F838002046C1
:100F600000F00CF8022084F83900211D206800F000
:100F700005FC012084F83900002010BD08B5006888
:100F8000B0F1804F12D10A48016841F001010160BF
:100F90000068002200F00100009011461C20FFF7BD
:100FA00055FCBDE808401C20FFF742BC08BD00000E
:100FB000243802400168CA6842F00102CA60006831
:100FC000816801F00701062903D0016841F00101A1
:100FD00001600020704770B5044690F83800012881
:100FE00017D0012584F83850022084F83900206891
:100FF000826822F0770222F47F42826008685028DB
:1010000030D00DDC20284DD005DC98B310283BD122
:1010100048E0022070BD302844D0402834D139E067
:10102000602828D0702806D0B0F5805F2CD0B0F5AD
:10103000005F29D10AE0CB68D1E90121206800F0E6
:10104000DFFB2068816841F0770109E0CB68D1E9D6
:101050000121206800F0D4FB2068816841F48041C0
:10106000816011E0CA684968206800F0DBFB50210C
:10107000206807E016E0CA684968206800F0E3FBD2
:101080006021206800F0C6FB84F83950002084F805
:10109000380070BDCA684968206800F0C3FB402171
:1010A0002068EFE7226801461046EBE7704770B50D
:1010B0000446006801694FF00005C943890715D44B
:1010C000C168C943890711D4E91E01610120207656
:1010D000206880698007204602D0FFF7E7FF04E020
:1010E00000F078F8204600F076F82576206801694F
:1010F000C943490717D4C168C943490713D46FF0DE
:1011000004010161022020762068806910F4407F8C
:10111000204602D0FFF7CAFF04E000F05BF820464B
:1011200000F059F8257620680169C943090716D4EB
:10113000C168C943090712D46FF008010161042096
:1011400020762068C0698007204602D0FFF7AEFFF6
:1011500004E000F03FF8204600F03DF825762068D6
:101160000169C943C90617D4C168C943C90613D464
:101170006FF010010161082020762068C06910F42A
:10118000407F204602D0FFF791FF04E000F022F8F4
:10119000204600F020F8257620680169C943C90778
:1011A00008D1C168C943C90704D1891E016120461D
:1011B00000F012F820680169C943490609D4C168E2
:1011C000C943490605D46FF040010161204600F093
:1011D0000BF870BD7047704702480168491C0160F8
:1011E00070470000000000207047FEE71FB5002296
:1011F00011462948FFF760F828A12748FFF75CF956
:10120000294CA26C0A2A01DA28A100E029A101A830
:1012100000F02CFB002208211F48FFF74DF801A920
:101220001D48FFF749F9E26C0A2A01DA1FA100E024
:1012300020A102A800F01AFB00220B211648FFF79C
:101240003BF802A91448FFF737F9226D0A2A01DAA0
:1012500019A100E019A103A800F008FB00220E214B
:101260000D48FFF729F803A90B48FFF725F9E068B7
:1012700000900948D4E9012311A1583000F0F6FA92
:10128000012200210448FFF717F8034902485831AA
:10129000FFF712F91FBD0000A000002052756E6E0E
:1012A000696E672000000000000000203025643ACD
:1012B0000000000025643A00302564002564000029
:1012C00054313A25642054323A25642054333A2567
:1012D00064202020202000003EB504460022114654
:1012E0003148FEF7E9FF012C0BD0022C0BD02FA1C7
:1012F0002D48FFF7E1F82F4DAA6C0A2A05DA2EA136
:1013000004E02FA1F4E730A1F2E731A1684600F034
:10131000ADFA002208212448FEF7CEFF6946224894
:10132000FFF7CAF8EA6C0A2A01DA23A100E028A133
:1013300001A800F09BFA00220B211B48FEF7BCFF1E
:1013400001A91948FFF7B8F82A6D0A2A01DA21A184
:1013500000E021A102A800F089FA00220E21124823
:10136000FEF7AAFF02A91048FFF7A6F8012C04D047
:10137000022C05D0032C14D008E018A1AA6A01E0C1
:10138000EA6A1BA10848583000F070FA01220021D7
:101390000548FEF791FF044903485831FFF78CF8E0
:1013A0003EBD18A12A6BEDE7A00000205345545F15
:1013B00054332000000000203025643A0000000073
:1013C0005345545F543120005345545F543220003C
:1013D00025643A00302564002564000054313A2524
:1013E000642047696179202020202020000000002F
:1013F00054323A2564205068757420202020202023
:101400000000000054333A256420476961792020A8
:1014100020202020000000002DE9F04786B0142194
:101420006846FEF7A2FE4948016841F004010160E8
:10143000016801F004010591016841F001010160BA
:10144000016801F001010591016841F002010160AC
:10145000016801F002010591016841F00801016095
:101460000068DFF8EC8000F0080043F2CF1405902C
:10147000002221464046FFF778F9DFF8D89048F679
:101480000306002231464846FFF76FF9DFF8C8A08F
:101490004FF45047002239465046FFF766F9009452
:1014A00001240025CDE90145694640460395FFF733
:1014B00091F80096CDE90145694648460395FFF746
:1014C00089F80097CDE90145694650460395FFF735
:1014D00081F8224D0420CDE9000569460294204898
:1014E000FFF778F82020CDE90005694602945046C0
:1014F000FFF770F8182000901A48CDE901046946FA
:101500005046FFF767F8002201210820FFF79EF9F7
:101510000820FFF78DF9022201210920FFF796F933
:101520000920FFF785F9022201210A20FFF78EF931
:101530000A20FFF77DF9012211461720FFF786F9EF
:101540001720FFF775F906B0BDE8F0871C38024098
:101550000008024000000240000402400000211088
:10156000000C02400000311010B586B00024114874
:10157000009401940294039404944FF080410594E4
:1015800001604FF47A51C0E901140911C0E9031454
:101590004461FFF7D8FC4FF480500090694605483D
:1015A000FFF719FD049404A902480594FFF7AAFC6B
:1015B00006B010BD64000020FEE7704770470000D1
:1015C00038B51C49002309681B4A11F0F00F23D1DC
:1015D00018491C310C68E500184C03D5216801F44A
:1015E000C0540EE00D6845F080550D600D6805F0A3
:1015F0008055009524680D6804F4C05425F080558A
:101600000D60B4F5C05F07D1B0F5404F04D110684C
:10161000012340F004001060106820F0010018431E
:101620001060106800F00100984201D0012038BD20
:10163000002038BD08380240003C024000700040E5
:10164000704700002DE9F0411B4800261C4C016842
:101650001A48012901D0066008E00168491C0160B0
:10166000B1F57A7F02DD2068401C2060DFF85480ED
:1016700010214046FFF774F8134D4FF4FA7750B934
:101680002068B84207DD28680168002903DD26606C
:101690000168491E016008214046FFF761F838B92A
:1016A0002068B84204DD266028680168491C016092
:1016B000BDE8F041FFF764B844000020400000207E
:1016C0003C000020000402403800002030B593B0F8
:1016D00034216846FEF749FD14210DA8FEF745FDAB
:1016E0000E48016821F4C05141F4006101600220FC
:1016F00000900024012510200994CDE9035068468C
:10170000FFF7D8F90F20CDE90E540D901094002169
:101710000DA81194FFF7CCF813B030BD0070004055
:101720000F48016841F4807101600D4908310A6871
:101730000C4B1A400A6002680B4B1A4002600268A8
:1017400022F480220260086820F47D0008600020F6
:10175000091D086005494FF00060086070470000EF
:10176000003802400CC0FF88FEFFFEEE08ED00E0EE
:101770000148FFF79CBC000064000020F0B502683F
:101780004FF0804C184B194C194D1A4E604507D03C
:10179000984205D0A04203D0A84201D0B04205D162
:1017A00022F070074A683A4360450DD098420BD04A
:1017B000A04209D0A84207D0B04205D00E4B9842B3
:1017C00002D00E4B984203D122F44073CA681A43E8
:1017D0000B6922F080021A4302608A68C2620968BB
:1017E000816201214161F0BD000400400008004019
:1017F000000C004000080140000C014000100140B6
:1018000010B5846842EA032224F47F440A43224349
:10181000826010BD826822F070020A4342F0070124
:101820008160704710B5036A046A24F00104046201
:10183000846924F0F00444EA021423F00A020A4303
:101840008461026210BD10B5036A23F010030362C5
:101850008369046A23F4704343EA023224F0A0034C
:1018600043EA01118261016210BDFEE70FB4084B2B
:1018700010B504A902AA039800F02CF8044602A9A6
:10188000002000F0D1F8204610BC5DF814FB0000E9
:10189000291A00080907090E002804DB00F1E020DE
:1018A00080F80014704700F00F0000F1E02080F88D
:1018B000141D704702E008C8121F08C1002AFAD19F
:1018C00070477047002001E001C1121F002AFBD1C0
:1018D000704700002DE9FF4F89B09B460446002564
:1018E00006E025280BD05A460B999047641C6D1CC6
:1018F00020780028F5D10DB02846BDE8F08F0027EC
:10190000B8460122474900E0074314F8013F203B55
:1019100002FA03F00842F7D120782E2819D114F8E2
:10192000010F47F004072A280ED06FF02F0220780D
:10193000A0F1300109290CD808EB880102EB410124
:1019400000EB0108641CF2E70A98641C50F8048B51
:101950000A9020780028CED0642808D0692806D0C4
:1019600075281ED05A460B9990476D1C58E00A996D
:101970004FF00A0901C90A91002802DA40422D21DC
:1019800002E0390504D52B218DF82010012103E058
:10199000F90704D02021F7E78A4608AE0DE00021C0
:1019A000FAE70A994FF00A0901C90A91F7E749468F
:1019B000FEF7E6FB303106F8011D0028F7D1ADEB4C
:1019C000060000F12009780701D44FF00108C8454E
:1019D00002DDA8EB090000E000208046002706E0B9
:1019E00008A85A46C05D0B9990476D1C7F1C57454F
:1019F000F6DB04E030205A460B9990476D1CB8F195
:101A00000001A8F10108F5DC05E016F8010B5A46C3
:101A10000B9990476D1CB9F10001A9F10109F4DCA3
:101A2000641C65E7092801000A68531C0B601070EC
:101A3000704700003EB50F4D686B002818D10E4C62
:101A40000821CDE9001401200290234604222146FA
:101A5000284600F0CDF80220CDE9000407490290A5
:101A60000B460122284600F0C3F8002028612860B8
:101A70003EBD0000000000200008024000000240BF
:101A80008CB0FEF785FEFFF721FEFFF7C5FCFFF7E0
:101A90006BFD4F48FFF78EFA4FF480514D488A0096
:101AA000CDE90702CDE90901C900CDE905014A4E9A
:101AB0004022CDE90362802041000290CDE900166A
:101AC00043483346022210213C30FEF782FB434C50
:101AD0000025012725642560C4E904576564E56392
:101AE000A564E564DFF8F8A067634FF002094FF0E2
:101AF000080825653648002203213C30FEF7DCFB50
:101B0000334838A13C30FEF7D7FC606B0128F1D098
:101B1000606B10B101284CD101E000F0D9F82069C8
:101B200048B93146CDF800800B4604222B48CDE958
:101B3000016700F07FF8206901280CD12068022895
:101B400037DBCDE900965146534601222348CDF8B4
:101B5000089000F06FF8206902280DD1D4E9000147
:101B6000884226DBCDE900965146534601221B48A8
:101B7000CDF8089000F03CF8206903280DD1E16809
:101B80002068884215DB3146CDF800800B460422E0
:101B90001248CDE9016700F02BF82069042808D12C
:101BA000A0682168C0EB0010B1EB800F01DB25615C
:101BB00025600A4A5032111F081F00F05DF8606B63
:101BC00010B1FFF713FBA3E76069FFF785FB9FE701
:101BD00064000020000402400008024000000020D1
:101BE000000002404E68616E20454E544552000090
:101BF0002DE9F041044606A8984690E8E000134617
:101C00008C46002219466046FEF7AFFD00222946A9
:101C10004046FEF7AAFD002239463046FEF7A5FDF4
:101C200003480169491C016100202060BDE8F08182
:101C3000000000202DE9F041044606A8984690E8EF
:101C4000E00013468C46012219466046FEF78DFDE2
:101C5000012229464046FEF788FD012239463046DA
:101C6000FEF783FD03480169491C016100202060E3
:101C7000BDE8F0810000002070B5134B4FF46165A2
:101C80006FF0E0061C6894FBF5F46FF0E00504606B
:101C90006C431D6805EB04143C2594FBF5F40C60C3
:101CA0000568A4EB041475431E6806EB051505EBE7
:101CB00084041460054D1C68AC4204DB00241C60E5
:101CC00004600C60146070BD000000207F510100B2
:101CD00018480022416A012914D14169032908D01A
:101CE000491C4161012906D0022907D003290DD0E2
:101CF00007E0012141610F49283101E00D492C31F4
:101D000081634262016A012903D009E00949303147
:101D1000F6E7816B0B68002B01DD5B1E0B60026236
:101D2000C169012904D1816B0B685B1C0B60C26126
:101D30007047000000000020030406080C10182063
:101D40003000000000000000000102030406070844
:101D500009000000741D000800000020640000005D
:101D6000B4180008D81D000864000020A404000076
:101D7000C41800080000000001000000010000007D
:101D80000100000000000000010000000000000051
:101D90000000000000000000000000000000000043
:101DA0000000000000000000000000000000000033
:101DB0000000000000000000000000000000000023
:101DC0000000000000000000100000000100000002
:081DD0000000000068FF1F0085
:0400000508000125C9
:00000001FF
